:020000021000EC
:10C000000040002045230200812302008323020018
:10C010000000000000000000000000000000000020
:10C020000000000000000000000000008523020066
:10C0300000000000000000008723020089230200A6
:10C040008B2302008B230200C12202008B230200FB
:10C050008B23020000000000391B02008B2302002A
:10C060008B2302008B2302008D1E02008B23020013
:10C070008B2302008B2302008B2302008B23020000
:10C080008B230200D92602008B2302008B2302009F
:10C090008B2302003DCA010005E401008B2302004E
:10C0A0008B2302008B230200000000000000000030
:10C0B0000000000000000000000000000000000080
:10C0C00010B5064C2378002B07D1054B002B02D06E
:10C0D000044800E000BF0123237010BD9428002015
:10C0E0000000000088530200084B10B5002B03D05D
:10C0F0000749084800E000BF07480368002B00D14B
:10C1000010BD064B002BFBD09847F9E7000000005C
:10C110009828002088530200942800200000000086
:10C12000164B002B00D1144B9D46402292029A1AC6
:10C13000924600218B460F461348144A121A06F005
:10C14000B8FE0F4B002B00D098470E4B002B00D0B1
:10C1500098470020002104000D000D48002802D05F
:10C160000C4805F0B8FF06F049FE2000290005F054
:10C170007EFF05F0ADFFC046000008000040002033
:10C18000000000006120020094280020D42E00202E
:10C19000D720020000000000704710B50368002B94
:10C1A00001D00800984710BD02000B00F0B51268DE
:10C1B00089B0019203AA15001E00406801688968D1
:10C1C0008C4692CE92C5DB680199D360002313613F
:10C1D000E04709B0F0BD000070B504000025216003
:10C1E0000E0045600C220830290006F062FE094B63
:10C1F000A5616361AE420AD1074D2B68002B02D1C5
:10C2000005F04AFA286023689B00EB586360200021
:10C2100070BDC0469BC10100D428002070B5002825
:10C220000DD1124C2668002E07D11C3005F096FF68
:10C2300005003100FFF7D0FF2560206870BD0126A2
:10C240000B4D2B78BFF35B8F0A4C334201D020009B
:10C25000F4E7280005F04CFF0028F8D0310020005A
:10C26000FFF7BAFF280005F05FFFF0E7B4280020D1
:10C27000B0280020B8280020436810B50400002B27
:10C2800002D1044806F0B2FC60680368DB68984796
:10C2900010BDC046D8470200436810B50400002B0B
:10C2A00002D1044806F0A2FC606803689B699847C5
:10C2B00010BDC046D8470200436810B50400002BEB
:10C2C00002D1044806F092FC606803681B6A984734
:10C2D00010BDC046D8470200436810B50400002BCB
:10C2E00002D1044806F082FC606803685B6B9847E3
:10C2F00010BDC046D8470200030007B59A68083051
:10C30000002A06D0034A002A03D0019301A95B69E1
:10C31000984707BD99C10100704710B50800FFF7A5
:10C320007DFFFFF7E9FF10BDF7B5FA26B6007143B0
:10C33000009308AB1B780400080014491700019310
:10C3400007F054FE85B23000258078430F4907F08E
:10C350004DFE6B461B8880B2A3806B461B796080C4
:10C36000A371032D01D80423238080232288DB01BD
:10C370009A4200D92380032801D80422628062886F
:10C380009A4200D963802000FEBDC04671020000C1
:10C3900010B50368002B01D00800984710BD10B5F8
:10C3A0000368002B01D00800984710BD10B5036842
:10C3B000984710BD002801D00B6803607047704794
:10C3C00010B50368002B01D00800984710BD10B5C8
:10C3D0000368002B01D00800984710BD10B5036812
:10C3E000002B01D00800984710BD000010B511487F
:10C3F00006F010FE0023104CE356013304D1242232
:10C400000E490F4806F08AFBE36862680D481A601F
:10C4100006F002FC0023E356013304D1242207492D
:10C42000074806F07BFB2369626807481A6006F03C
:10C43000F1FD10BD084802004C29002018480200F8
:10C440005F4802000000A040774802001FB50400CA
:10C45000134806F0DFFD134B6288DB8B9A4217D13D
:10C46000E2681149684606F033FE69460F4806F057
:10C47000D1FD69460E4806F099FE0E4C002808D101
:10C480000D4806F0C7FD200006F0C4FDFFF7AEFF23
:10C490001FBD0A4806F0BEFD200006F0BBFDF7E711
:10C4A000874802006429002098480200874902005A
:10C4B00003490200D94802009B480200AF4802002D
:10C4C000F7B501920400C07F1D00C3180F000126BC
:10C4D0001D2B1ADCA9193200201806F0EAFCE07FB7
:10C4E00032008019C0B2E0773900201806F0E1FC74
:10C4F000E07F2A0080190026C0B2E0770199201859
:10C5000006F0CEFCE37FED18E5773000FEBD0000BD
:10C51000F7B5040000250192C27F954205DA66193D
:10C520007078884206D1002E09D1019A2000FFF7C9
:10C53000C7FFFEBD605D01302D18EDB2EDE7152996
:10C5400022D801278F40234807421DD0D11801204F
:10C550001F29EEDCA2183018824209D8002293422B
:10C560000ADD0199885CB11801328870D2B2F6E711
:10C570001178D154013AEFE7625D9A186255E27F73
:10C580009B18E3770020D4E7655D013DEDB2AB4237
:10C5900009D10023AB42F5DA019AD15CF2180133DC
:10C5A0009170DBB2F6E7521BD21801201F2AC0DCC3
:10C5B000AA1C0338B618421B9446E27FA718BE4255
:10C5C00004D267463278F2550136F6E7451B521918
:10C5D000E277AAE7FC002000036810B5011DDB6FBD
:10C5E00004009847002804D10123583422781343CB
:10C5F000237010BD10B50020FFF710FEFFF74CFEB2
:10C60000FFF7EAFF014806F005FD10BDC54802002E
:10C6100070B506008AB00A360C00222231000500EF
:10C6200001A806F03DFC6B46DA1C012301A81900A5
:10C630001470FFF76DFF041E0DD12A002B683432F1
:10C640009B6F01A928009847041E04D1222201A94A
:10C65000300006F025FC20000AB070BDF0B50500E2
:10C660000E0017008DB00A3522222900040003A80D
:10C67000019306F015FC3100019B3A0003A8FFF777
:10C6800047FF061E0DD12200236834329B6F03A999
:10C6900020009847061E04D1222203A9280006F094
:10C6A000FFFB30000DB0F0BDF0B5037989B0009309
:10C6B000002B73D1056803AC2800FFF7EDFD0C22B9
:10C6C00000990190200006F0F4FB142005F046FDCF
:10C6D000354B220003930300C2CAC2C3334B019EF1
:10C6E000C360009BA43603613368002B58D13060CF
:10C6F0002800FFF7E1FD0C2200210600200006F0D3
:10C70000D8FB142005F02AFD294B0393030086CCA7
:10C7100086C3284BC36000230361B369002B41D15A
:10C72000B0612800FFF7B8FD0621FFF771FF280070
:10C73000FFF7B2FD002303712800FFF7ADFD0723CB
:10C740001D4A0921FFF78AFF2800FFF7A5FD1023E6
:10C750001A4A0321FFF782FF2800FFF79DFD0368B7
:10C7600004009B68984703003220834203DD23685E
:10C7700020009B689847FA239B005843104907F014
:10C7800035FCE0802800FFF797FD03680D491B6822
:10C7900098472800FFF780FDFFF71EFF09B0F0BDA6
:10C7A0000361A4E70361BBE7F5C50100DDC3010038
:10C7B0004DC40100CFC30100EC480200F348020061
:10C7C000710200002C290020F0B53C4899B006F019
:10C7D00021FC0020FFF722FD0EAE002105000C22F7
:10C7E000300006F066FB364B13AC0E93230007CEE9
:10C7F00007C3344B2100E360002328002361FFF7C7
:10C80000D3FC2800FFF738FD0028FAD02E4B21007A
:10C8100013932E4B2E48E36005F0CCFFE368002B0A
:10C8200002D09B68200098472A4806F0F3FB2A496B
:10C830002A4806F0EFFB8D23942400261E270A9336
:10C8400064330993A93B0893173B079389330593F6
:10C85000453B0493293B03930E3B02931233019310
:10C860003D22330071210C970B94069400961C48CE
:10C8700006F0D0FB8D230A9364330993A93B0893F8
:10C88000173B079389330593453B0493293B039357
:10C890000E3B0293123301934D3B00930C970B9484
:10C8A000069433003D2271210E4806F0B3FB0E487A
:10C8B00006F0B0FB2800FFF70FFDFBE7244902005C
:10C8C000A9C60100C1C30100EDC30100FC4702007D
:10C8D000EC2800204F490200EC4802007A4902008F
:10C8E0008C490200E149020050490200F0B5434C76
:10C8F00087B018220021200006F0DBFA0022200079
:10C90000122106F073F83E4C1021200005F024FFA0
:10C910003C493D4A200005F0D9FB0023190001AE37
:10C92000F21801335170102BFAD10F3B3748337096
:10C930000E33195CF21A1174013BFAD2B27B737B8D
:10C94000334C12021343738263826B463278671C46
:10C95000591D22703800102206F0A2FA2D4B082231
:10C9600063611423FA7723836383A21C133BD37779
:10C9700023772300002528331D70230029331D70E1
:10C98000230020002A331D700C222900E5836562F4
:10C990002C3006F08EFA20001F4B0C22A363E563B7
:10C9A0004030290006F085FA2A001C4B2565E36417
:10C9B000731901355A70102DFAD1012318483370BC
:10C9C0000E33195CF21A1174013BFAD2B27B737BFD
:10C9D000144C12021343738263826B463278591DE2
:10C9E0002270601C102206F05BFA012323750E4BA7
:10C9F000A3610023A38307B0F0BDC0464C290020EB
:10CA0000EC280020F926020000280020DC48020063
:10CA100064290020D82800209FC3010091C3010091
:10CA2000144902002C290020042800202EDF704722
:10CA300032DF704733DF70474CDF70470120054B12
:10CA400010B51A7850401870034B1B68002B00D0AB
:10CA5000984710BDBC290020B82900200C4B70B5A8
:10CA6000050015200C001A60FFF7E2FF00280ED128
:10CA700029001530FFF7DEFF002808D11530FFF739
:10CA8000D5FF002803D121000330FFF7D5FF70BD8B
:10CA9000B8290020C36810B50400002B01D09B68A2
:10CAA0009847200010BD000010B50400064B03603D
:10CAB00005F0FBFE20001830FFF7ECFF200005F02A
:10CAC0005BFF200010BDC046A851020010B5040055
:10CAD000FFF7EAFF200005F04DFB200010BD00002D
:10CAE00010B5074C200005F023FF064B064A2360D3
:10CAF000002306496362200005F0E8FA10BDC04635
:10CB0000C0290020A851020000280020A9CA010065
:10CB10007FDF704782DF7047A7DF7047A9DF70476C
:10CB2000AADF704700207047002070470020704740
:10CB3000F7B504000E006A468178204801F08AFAB1
:10CB400000283AD10C2362781D4F5A431D4B9B1885
:10CB50009B7A5B0605D4022E03D01B4F012E00D01A
:10CB60001A4F1C25A3781A496B432A00C918684636
:10CB70000023B84700281ED1022E1ED00C22617857
:10CB8000104B4A439B189A7A4030694382439A7209
:10CB9000104B2A00591868462B00B8470C232278FE
:10CBA00021005A430C4B68469B189B7A0B4A9B000A
:10CBB0009B58984701E0022EF0D1F7BD742A00205F
:10CBC00019E10100102A0020A1E0010025CB01009D
:10CBD0003C2A0020F4290020E8290020544A0200C1
:10CBE000F7B518220190437826485A4381184C68BB
:10CBF000254F002C30D00C2159437918897A4DB239
:10CC0000002D28DA490626D41500A6B20835145896
:10CC100045190C225343FB181889320023002900C0
:10CC2000FFF77CFF0B281AD10C22019B29005B78AF
:10CC30005343FB18188932000123FFF76FFF0C21C3
:10CC4000019B124A5B784B43FF183889FFF764FF5A
:10CC500000280AD1FEBD002426002500D9E70028BF
:10CC600000D00B48012CF5D1E9E70222094BC3188B
:10CC7000934305D0082803D0112801D00020E9E70C
:10CC80000348E7E71C2A0020102A0020FFFF0000CD
:10CC900041800000FECFFFFF10B5FFF7A1FF10BDE0
:10CCA000F0B589B002AB9D1D0E230C2701900091B9
:10CCB0002B804B78224A7B43D31818892A00032300
:10CCC00004A9FFF72DFF00281AD11826009B1D4C40
:10CCD00058782A8870430830201804A906F0D1F843
:10CCE000009B5B7800280ED15F43154AD7190222BA
:10CCF000B97A114004D173433200E01806F0D9F834
:10CD0000002009B0F0BD5E43A61972680E4F002ADC
:10CD100000D10E4F182603227343E2502A88E118EF
:10CD200008334A60E01804A906F0BAF8009B320004
:10CD300059780198714338236118B847E0E7C04635
:10CD4000102A00201C2A002019E10100A1E00100A6
:10CD500010B5FFF7A5FF10BDF8B5182507004878F6
:10CD6000094C68430E00201838232A00390001F0CE
:10CD70000FFA002806D173785D43641963680133A4
:10CD800000D16060F8BDC0461C2A002010B5FFF736
:10CD9000E3FF10BD0020704700207047002070475F
:10CDA0000020704770B51C254543060028000D4C37
:10CDB0001130201806226419002106F07AF810229A
:10CDC0000021200006F075F8FF232374A376013BB1
:10CDD000FF3B23830233B340034A11689943116038
:10CDE00070BDC0463C2A0020382A002037B581B2E9
:10CDF00005006A46074801F02DF9041E08D15421A8
:10CE0000684601F011FA041E02D12800FFF7CAFF9C
:10CE100020003EBD742A0020F0B51D00424B93B0A7
:10CE20001B6801900F001600002B36D0189B542B66
:10CE300033D8FF22002403AB5A709A70DA701C704A
:10CE400002AB1C74189B0B950A93A1B204AA374835
:10CE500001F000F9002822D1082204A9019806F067
:10CE600010F800281BD103AB9C7003ACA178FF29FC
:10CE700013D0032F19D1189A06AB542A13D1343A80
:10CE80001A70032219780A431A7009AB0793264BCC
:10CE900032001B6806A92000984713B0F0BD01348A
:10CEA000022CE2D0D1E74022EAE7214BEB1A372BE4
:10CEB00015D8204B002E04D101228A401868104258
:10CEC000EBD001228A40196891432022196006ABF9
:10CED0001A7006AB022F24D119780122D3E7164B22
:10CEE000EB1A1B2B09D8202206AB1A7000236370A3
:10CEF0000CAB0B9318230A93EBE710482D1A172D50
:10CF0000CBD8302302AA1374002363700133E3707B
:10CF10000B4B997A02231940DBD1182205F0C9FF87
:10CF2000D7E719780222AEE7E8290020742A00200A
:10CF30003C2A0020382A0020F42900201C2A002046
:10CF4000102A0020F0B5050085B000285ED001272A
:10CF5000002401262E4B2F487F421C605C729C727D
:10CF60002100072286720781C77205F0A2FF210007
:10CF70001822294805F09DFF2000FFF713FFFF232B
:10CF8000264C30002370FFF70DFF54236A4667706C
:10CF90009380234C523BD380224B21006846009360
:10CFA00000F0FAFF002826D11F4F2B783E70002B8F
:10CFB00023D1010002AA200001F04CF8002818D16A
:10CFC0001A4D03001C2202A9280001F0E1F80028F4
:10CFD0000FD102AA3100200001F03CF8002808D14E
:10CFE0001C3503001C2202A9280001F0D1F80028FA
:10CFF00001D000233B7005B0F0BD6B469988DB88FB
:10D000002000594389B201F00FF9F4E70848F2E72C
:10D01000E8290020102A00201C2A0020342A0020A1
:10D02000742A002019CE0100362A00203C2A002054
:10D030000E800000F8B5174B06001B780F00002B80
:10D0400022D0002822D0002920D00B68002B1DD030
:10D05000114D2C68002C1BD12800053108C0052279
:10D0600005F01EFF0121022204203B79AB722B7ACE
:10D070008B43134383432B72EB7919430A43824357
:10D080002000EA713470F8BD0448FCE70448FAE770
:10D090000448F8E7362A0020E8290020088000002C
:10D0A0000E80000004800000154B1B78002B22D05E
:10D0B00000281ED000291CD00378002B1BD1114B57
:10D0C0001B68002B17D04278002A16D10E4B9B7A92
:10D0D000012B12D02420184003D0012310000B7024
:10D0E00070475BB2002B02DA02230B70F8E708707E
:10D0F000F6E70648F4E70648F2E70648F0E7C046D8
:10D10000362A0020E8290020102A00200E80000086
:10D110000880000010800000344BF7B51B78002B0E
:10D1200061D000285DD000295BD00C68002C58D05D
:10D130008E68002E55D00378002B54D12C4B1B68E1
:10D14000002B50D02B4B987ADF7A022318400190A5
:10D15000002F20D00B7B002B10D100220D7995429F
:10D1600006D0254DA87E800702D4103525600132F7
:10D17000012F15D10198002812D02EE01E4D01225A
:10D18000AB7E9C46604600231042E6D135601B4DC5
:10D190002B701300E1E7019B002BDBD03B003A0032
:10D1A000087B98420CD91448050036352F780125A4
:10D1B0002F4205D19F001C30B8511048C5545B194F
:10D1C0000879904209D90C48050036352D78AD070D
:10D1D00003D495002C302851013200200A710B73C2
:10D1E000FEBD0748FCE70748FAE7C046362A00209C
:10D1F000E8290020102A00203C2A0020342A0020A0
:10D200000E800000088000000F4B10B51B78002B2B
:10D2100018D0002814D00078002813D10B4B1B68BD
:10D22000002B0FD00A4CA37EFF2B01D0FFF7DEFDB1
:10D2300036342378FF2B02D00120FFF7D7FD10BD35
:10D240000448FCE70448FAE7362A0020E8290020D1
:10D250003C2A00200E8000000880000013B5040066
:10D2600081786A460B4800F0F5FE002810D11C2298
:10D270006378094853436946C018130000F088FFDB
:10D28000064B074A9B7A21009B009B5868469847AB
:10D2900013BDC046742A0020F4290020E82900208C
:10D2A000444A0200FF23F0B5C14A8FB0127806004D
:10D2B0000393002A64D0BF4A12680192002A5FD00B
:10D2C00004AD05AF6B70AB70EB70031D7B602A2360
:10D2D0003B81002302882B70B74C102A4BD0A37AD5
:10D2E000990708D58188B548814200D17EE120891F
:10D2F000884200D17AE1172A00D100E119D8132A17
:10D3000000D190E0142A00D16BE0112A38D102221A
:10D3100019009143A1721B075BD54AB2002A03DAB8
:10D3200000212800FFF704FC1023A37202333B7096
:10D330004DE01C2A00D157E1522A00D14CE1182AB5
:10D340001ED1B279112A00D023E11A0700D420E1BE
:10D350009B480E220021083005F0ABFD16233B70E0
:10D36000A27A4A331343A372924B5A7A022313438D
:10D37000904A53722BE00121A27A0A4200D03AE18E
:10D380000FB0F0BD8F4A5B08D35CFF2B00D0039336
:10D390000821894A02AB907A1B790143D3729172BA
:10D3A0002800AB70FFF75AFF11E0228B834B9A42A3
:10D3B00003D0A28E9A420AD101270397E8E7200002
:10D3C00007222C30390005F05CFD0028F4D0002441
:10D3D00069E0A878FF28A7D0FFF7E4FCFF23AB7033
:10D3E000A2E7E27A784FFF2A10D1F289398B914275
:10D3F00017D0B98E914209D101220821D2B20B4334
:10D40000E272A3722800AA70FFF728FFE37A6F493F
:10D41000FF2B00D10021B08800233A00FFF77AFBF0
:10D42000AEE70022E9E73A7004221343A372E37ADD
:10D43000FF2B57D1644B9B7EFF2B07D0624B0127FC
:10D4400036331B78FF2B02D0614C15E000271C20DF
:10D4500023787843022B40D05B4B07221818FD231A
:10D4600010308372210005F01BFD03AB1F7002AB6F
:10D470001B79AB70E372002400214F4B0B91DA7AD9
:10D480001C235343504A0D91D3180C934F4B0991D1
:10D490000893484B0A911A1DB08808ABFFF738FB78
:10D4A000002800D06CE7434B05AE1B68220031001A
:10D4B000280098473378122B00D061E73E48837AE2
:10D4C000012B00D15CE701238372023B0381C3720D
:10D4D0000722002105F0EDFC52E73B4B1818FE2314
:10D4E0008376C2E7162336480E22002108303B70AF
:10D4F00005F0DFFC4023A27A1343A372BBE70124AB
:10D500002C4A2C49527A1427A2434A7204222A49EF
:10D5100093438B72180005AB1F70B379002B04D0B6
:10D52000C87AFFF763FCB479BDE7F379134200D101
:10D530004DE7AA78FF2A00D149E7082303438B72FD
:10D54000F37A9B0706D51C2050431F4B1B18987E6F
:10D55000A0439876CB7AFF2B00D138E71C235343A6
:10D56000194C0878E41802280DD02000072210304A
:10D5700005F096FC0222A37E9343A37601212800A6
:10D58000FFF7D6FA23E7114B01225B8A2383A37EA0
:10D59000F2E7802252421343A37215233B70054BDE
:10D5A0000C4A9B7A28009B009B5898470FE7C0467F
:10D5B000362A0020E8290020102A0020FFFF000062
:10D5C0001C2A0020342A00203C2A0020F4290020B4
:10D5D00043800000344A0200174B184A9B7A280007
:10D5E0009B009B589847CBE61323A0E6E17AA970ED
:10D5F000002169707FE611226B703A708388871D65
:10D60000238102230A3AA3723900200005F048FC66
:10D610000122737D134200D0B4E6094C002F00D1E3
:10D62000C3E6200007221030390005F02AFC00284C
:10D6300000D0C4E60700C0E6E8290020344A020012
:10D640003C2A002030B5002913D00A78002A12D1D4
:10D650000A4B1B68002B0ED0FF23094C8B702589C9
:10D66000FA3B854203D14A70E37A8B7013001800AD
:10D6700030BD044BFBE7044BF9E7C046E829002026
:10D68000102A00200E800000088000004DDF704747
:10D6900030B500230D0014008DB06946C21AD27B4C
:10D6A0005A540133102BF8D100210D2204A805F0A3
:10D6B00000FC6A462B786846D3776B789377AB7813
:10D6C0005377FFF7E3FF2F236B441B7823702E2340
:10D6D0006B441B7863702D236B441B78A3700DB0D3
:10D6E00030BD30B50378040085B00D000020022B5A
:10D6F00016D1611C032201A805F0D2FB211D0322D3
:10D7000003A805F0CDFB02AA03A92800FFF7C0FF7C
:10D71000032202A901A805F0B4FB43425841C0B25C
:10D7200005B030BD10B5064B586980235B05421C1F
:10D7300004D0196989B206F059FC10BD5869FCE79C
:10D740000010001029DF704728DF7047034B10B529
:10D750001B78034A9B009B58984710BDD52A002090
:10D76000644A02000B0037B50C24020018009D68C3
:10D7700009786C43044D08302D680095034D1B69F2
:10D780006459A04737BDC0467C2A0020802A00206B
:10D7900080225205116914220E4B10B5187889B2F7
:10D7A00042439B181A69501EDA881B898018C018DA
:10D7B00006F01CFC084B1A680123904207D800238E
:10D7C000904204D1054B1A6853425341DBB2180012
:10D7D00010BDC0468C2A0020B82A0020D82A00207C
:10D7E000082310B5034A116899431160FFF7AEFF93
:10D7F00010BDC046BC2A0020094910B50A681307AD
:10D800000AD4930702D5012313430B600222054B70
:10D810001A70FFF79BFF10BDFFF7E2FFFBE7C04662
:10D82000BC2A0020D52A0020064B10B51B681B0718
:10D8300005D40122044B1A70FFF788FF10BDFFF7D3
:10D84000CFFFFBE7BC2A0020D52A002010B5002816
:10D8500006D0112805D10823094A11680B4313602B
:10D8600010BD1423074A1178594304315118FFF7AA
:10D8700079FF0422044B1A7000F098F8F0E7C046D4
:10D88000BC2A00208C2A0020D42A002010B5FFF7E3
:10D8900059FFFFF7DBFF10BDF8B514248025124BAC
:10D8A0006D051A78114E54431C192B69E2889BB2FE
:10D8B000278920699A420FD92B6961699BB2D31AD3
:10D8C0002A69381892B2C918C0189208FFF7DEFF0B
:10D8D0002B699BB23360F8BD920838186169FFF775
:10D8E000D5FFE388F6E7C0468C2A0020CC2A00202A
:10D8F00070B58025094B6D052A691B6894B2013B00
:10D900005C43FFF70FFF2B69411E9BB25943044B49
:10D9100020001A68FFF7BAFF70BDC046B82A002081
:10D92000C02A0020142270B580260E4B7605197887
:10D930004A439B181A89DC881B69A4183169E418CA
:10D94000200089B206F0D8FB0D00FFF7EBFE33692B
:10D95000411E9BB25943044B49191A682000FFF736
:10D9600095FF70BD8C2A0020D82A002010B5FFF743
:10D97000D9FE8022074952051369146909681269A2
:10D98000A4B2614392B2441E98B292086043FFF77A
:10D990007DFF10BDB82A002010B5034B1868FFF7B3
:10D9A000D3FEFFF753FF10BDB82A0020F0B52B4B74
:10D9B00085B0187803280ED806F00EFB020F124D22
:10D9C0000023274A1360274A1360274B5B78002BFC
:10D9D00001D000F0F5F805B0F0BDFFF75DFFFAE704
:10D9E000224C14252368802701930123019A7F0587
:10D9F0009A431D4B226002921A78396955435D198A
:10DA00002B6989B21800039306F0F0FA184B060050
:10DA10001860039B3969581EEB8889B2C01806F05C
:10DA2000E5FA864210D10223029A13432360114B78
:10DA30001A68114B002A0CD121680232114208D118
:10DA40001A70FFF783FEC6E70323019A9A43130077
:10DA5000ECE70022F4E7FFF79FFFBCE7D42A0020A1
:10DA6000D02A0020CC2A00208C2A0020BC2A0020AA
:10DA7000B82A0020C02A0020D52A002014230C2018
:10DA8000F0B58025484A85B011786D054B43D31811
:10DA9000DF68464A784312181489508952686043F7
:10DAA000821829691C890292DA881E6913199B1948
:10DAB0000193002303923E4A89B21360300006F0BE
:10DAC0001BFB2A00002918D12B6903999BB29942AC
:10DAD00005D0029B01998B424ED1002C58D111697F
:10DAE000300089B206F082FA324B18600323324AC2
:10DAF0001370FFF75BFF05B0F0BD022FEFD029696F
:10DB0000301989B206F0F8FA2C4B89081960019A8D
:10DB1000029B2969934220D089B2019806F0ECFA61
:10DB200000291AD080246B4664052169188989B2BE
:10DB30009F8806F05BFA26690500B1B2380006F04E
:10DB400055FAADB280B2854209D16B466A461B894F
:10DB500092889B1A164A9B0813600223C7E7236921
:10DB60002169380089B29CB206F0C6FA89B2641AFB
:10DB70000F4BA4081C60F0E7022FB0D029693019C0
:10DB800089B206F0B9FA0D4B890819602969C3E713
:10DB9000022FA4D02969301989B206F0ADFA074BDB
:10DBA000890819602B69D8E78C2A0020802A002078
:10DBB000D82A0020B82A0020D42A0020C02A002019
:10DBC00014220B4B10B519784A439B18D988094A7F
:10DBD0001B791160032B08D0042B06D0012B03D135
:10DBE000054A1370FFF7E2FE10BDFFF747FFFBE7A2
:10DBF0008C2A00207C2A0020D42A0020F7B5124E5F
:10DC00000193757808AC27880424022D1AD0347843
:10DC10006419012C00DD023C14235C433419626159
:10DC2000220020710C3209C909C26B469B882781EA
:10DC3000E3800024054B01351B787570A34201D1A8
:10DC4000FFF7BEFF2000FEBD8C2A0020D42A002052
:10DC500070B51424114D00202978614304316918EE
:10DC6000FFF780FD23000022012029784B43EB18A9
:10DC70001A71DA80D8601A615A611A816B780918B2
:10DC8000013BC9B26B70022905D02970044B1A7090
:10DC9000FFF78CFE70BD2A70F8E7C0468C2A002082
:10DCA000D42A00201422084B10B519784A439B1837
:10DCB0001B79042B02D0FFF7CBFF10BD0122034BD1
:10DCC0001A70FFF773FEF8E78C2A0020D42A002090
:10DCD000F8B508241D4E37683C4027D180235B05EA
:10DCE00019691B4B1D68002D23D01422194B89B2D2
:10DCF000187842439B181A69501EDA881B898018CD
:10DD0000C01806F073F9144B1B68984211D1134BDD
:10DD10001C6001231F43124B37601C7013E0002D61
:10DD200001D003220DE0FFF7BDFF0EE0FFF758FD25
:10DD30000BE0FFF72DFD0028F1D00022074B1A6001
:10DD40000232074B1A70FFF701FDF8BDBC2A002014
:10DD5000D82A00208C2A0020B82A0020C02A0020BF
:10DD6000D52A0020054B10B51B681B0702D4FFF70E
:10DD700099FF10BDFFF734FDFBE7C046BC2A002029
:10DD800070B5164D2C68230725D4154A1368013346
:10DD90001360144B04221B68002B04D1FFF7F8FC1E
:10DDA000002805D00222104B1A70FFF7CFFC70BD7F
:10DDB0000E4B1B68002B0BD0012321000A4A19408F
:10DDC00003D123432B601170EFE703231370ECE7BB
:10DDD000FFF768FFEBE7FFF703FDE8E7BC2A002049
:10DDE000B82A0020C02A0020D52A0020D82A0020E6
:10DDF0001E4B10B51B78022B30D0032B19D0012BF2
:10DE000013D108211A4A13680B4222D11423194A4C
:10DE100011784B43D218184B1968D3885B1A9BB200
:10DE2000D380002B02D1FFF713FF10BDFFF734FDA5
:10DE3000FBE708210E4A13680B420AD10F4A136808
:10DE400001331360FFF7A4FC002804D1FFF72AFF79
:10DE5000EBE78B431360FFF7A9FDE6E7084B094AA0
:10DE60001B789B009B589847DFE7C046D42A0020C8
:10DE7000BC2A00208C2A0020CC2A0020B82A0020AE
:10DE8000D52A0020784A020010B5FFF74BFC80220B
:10DE9000520513691169421E98B2504389B206F0C7
:10DEA000A5F8FFF751FCFFF7D1FC10BD70B5154C7C
:10DEB000042522781300AB4303D002281FD0032887
:10DEC00000D070BD104B1B681B0718D40F490B689E
:10DED00001330B60032B07D0022A02D0FFF766FD47
:10DEE000EFE7FFF733FCECE71423094A0D20117824
:10DEF000594304315118FFF735FC2570EEE7FFF761
:10DF000077FFDEE7D42A0020BC2A0020D02A002098
:10DF10008C2A002010B501220024164B1C705C7066
:10DF20001C71DC80DA601C615C611C811C765C8386
:10DF30001A625C629C629C830F4B1C80FFF7F2FBB1
:10DF400080235B051B69821E98B2504304220B4B51
:10DF500018600B4B20001C600A4B1C601C815C810C
:10DF6000094B1C70094B1C60094B1C60094B1A6063
:10DF700010BDC0468C2A0020C42A0020C82A0020D8
:10DF8000B82A0020802A0020D42A0020D02A00208D
:10DF9000CC2A0020BC2A0020F7B50422294B04001B
:10DFA0001B680E00082013420FD00630002C0CD046
:10DFB00000290AD02368002B07D080277F053A6903
:10DFC000A38892B2934201D90720FEBD0F2BFBD943
:10DFD000E288002AF8D01C4953430D685B1901936D
:10DFE000FFF7A0FB3B6901389BB25843019B83427A
:10DFF000EAD8A2889307E7D1144B04201F88012F89
:10E00000E3D00C237B433760756011482668C11844
:10E010001E5080234D600A81E0885B054881504393
:10E020001969013889B21C6906F06AF8A4B2013096
:10E030004443054B65191D60044B01371F800020C8
:10E04000C3E7C046BC2A0020C82A0020C42A0020FA
:10E05000802A0020104B30B51C680823640717D5B0
:10E060000633002814D0002A12D00368002B11D1E7
:10E070000A4D2C68002C0DD02C894068614309188A
:10E080006889444368682418A14203D21360516030
:10E09000180030BD0723FBE7BC2A0020802A00209F
:10E0A000F0B505001A4885B00468082064072DD52E
:10E0B000063000292AD0002D28D02C680738002CE3
:10E0C00024D1144C2668002E20D06E680396278930
:10E0D000668964687E43B446039E6444A64215D2B2
:10E0E000002A13D0974211D3D418A7420EDB032481
:10E0F000093021420AD1234208D1264206D1009399
:10E100000F3813000A002900FFF778FD05B0F0BDB5
:10E11000BC2A0020802A0020F0B505001A4885B0EE
:10E120000468082064072DD5063000292AD0002D68
:10E1300028D02C680738002C24D1144C2668002ED7
:10E1400020D06E6803962789668964687E43B4464A
:10E15000039E6444A64215D2002A13D0974211D3DD
:10E16000D418A7420EDB0324093021420AD12342EE
:10E1700008D1264206D100930C3813000A0029006A
:10E18000FFF73CFD05B0F0BDBC2A0020802A00202E
:10E19000F0B51700224A85B0126802900D009C4627
:10E1A0000824530734D50634002931D000282FD055
:10E1B0000C68002C2FD11B4E3268002A2BD03089DE
:10E1C0007289736842434968D218914223D2002F62
:10E1D00021D0B8421FD36346FA1890421BDB0322BA
:10E1E000029B134219D16346134216D10A4003928F
:10E1F00013D161443A00029804F052FE0C232A68BD
:10E20000009753430221F658039A029B2800B04717
:10E21000200005B0F0BD0724FAE71024F8E7C04657
:10E22000BC2A0020802A0020F0B51F4B85B01B6857
:10E2300005000E0008245B0733D50634002830D0D3
:10E240000368073C002B2CD1184B1A68002A28D0F1
:10E250001A894768029258685B8953431B180393D5
:10E260009F421ED20934BB071BD1381A110005F09A
:10E2700043FF093C002914D10299300005F03CFF0E
:10E2800089B200290DD1002E0BD0039AF3199A42BE
:10E2900007D300223300009229000320FFF7AEFCD1
:10E2A0000400200005B0F0BDBC2A0020802A002018
:10E2B0002EDF704751DF704710DF704711DF704766
:10E2C00061DF704710B50800110000F015FA10BDAD
:10E2D000F0B5254B85B01B78DBB20193002B3DD008
:10E2E000224E234F35683C686B425D4163425C417E
:10E2F000EDB2E4B2002D19D103A8FFF7DBFF05282A
:10E300002ED000280AD02A00290000F0F7F9002CAE
:10E310000FD00024019B25001C00EBE70398336815
:10E320009847F4E728003B68984713E0002C15D184
:10E330002C00104B03A91B880B800F4B1D68280075
:10E34000FFF7BEFF052807D00028EBD00022110000
:10E3500000F0D4F90023DEE7002CDAD005B0F0BDE0
:10E36000002CFBD1019CE4E7E82A0020EC2A0020E5
:10E37000E02A0020DC2A0020F02A002070B50400EA
:10E380000720002913D08D0711D1094801600949E0
:10E3900020000A80084A09491360FFF78DFF002812
:10E3A00005D10122064B16301A70FFF781FF70BDB0
:10E3B000F02A0020DC2A0020E42A0020C5E2010027
:10E3C000E82A002010B5FFF779FF03005A1E934199
:10E3D000014ADBB2137010BDE82A00200E2300288A
:10E3E00002D0024B1860002318007047E02A00207A
:10E3F0000E23002802D0024B18600023180070473B
:10E40000EC2A0020074B10B51B68002B07D098475B
:10E41000002803D00022110000F070F910BDFFF7B2
:10E4200057FFFBE7E42A002070DF704771DF704779
:10E4300060DF704710B5FFF739FD10BD074B10B511
:10E440001C78002C07D1012220001A7003F028F953
:10E450002100FDF762FF002010BDC0463C2B0020CC
:10E46000F0B505008BB0FEF71DFF280000F01CFA88
:10E47000002003F015F9036806009B69984733688C
:10E4800004001B6A3000984733680090DB6A300054
:10E4900098470300288810380B2800D990E005F031
:10E4A0009BFD06508F8F8F898F8F8F958FB2AE888F
:10E4B000200031002F7D01F095FA200001226B7BB6
:10E4C000583001930378A97993439C46022362460E
:10E4D000134303700238037804AA0133037004ABBA
:10E4E000D9701E809F700023694613715371937118
:10E4F000D37113725372D372137353739373D373B1
:10E5000013742B0009791633917205A8E91D0622B0
:10E51000099304F0C5FC29000B2004AB06220E3140
:10E52000C01804F0BDFC94346368A360A0680028A0
:10E5300046D0C36804A99847A368002BF4D01B6990
:10E54000F3E742492000AF8801F04CFAAB79300084
:10E55000019333689B6A98470600ED30FF3006222E
:10E56000390000F0ECFE338FBB4204D13000736BF6
:10E5700034309B689847220056321378013BDBB257
:10E580001370002B03D1022193788B4393706A465A
:10E59000127904AB1F809A70A0346368A360A068EE
:10E5A00000280DD0C36804A99847A368002BF4D0B5
:10E5B0001B69F3E75B69A91D002B01D0A888984768
:10E5C0002900009802F084F80BB0F0BDAE79002E5F
:10E5D00005D122000121583213788B431370636EEA
:10E5E000002BEDD01A4A002AEAD0A366A06E0028BC
:10E5F000E6D0C36831009847A36E002B01D1636E4B
:10E60000F3E71B69F1E701260D27AB7BE91D5A07EC
:10E61000920F1E400192DB08062204A8EF570293D6
:10E6200004F03EFC6A46127904AB1A726A46127A0A
:10E630009F715A72DE712B0020000F338C340793C8
:10E640008030236804A99847BAE7C046FFFF00005E
:10E6500099C101001FB5A3238022DB00D205D35846
:10E660000820DB0700D405301D4B48221D49FFF769
:10E6700085FE00280BD080B2002808D1BFF34F8F51
:10E68000194A1A4BDA60BFF34F8FC046FDE702AC60
:10E6900008220021200004F00CFC0123200023703C
:10E6A000FFF7C6FE002802D0072004B010BD684660
:10E6B000FFF7BCFE0028F7D16946FFF7B5FE00283A
:10E6C000F2D10B48FFF78AFE80B20028EDD109484D
:10E6D000FFF78EFE80B20028E7D100F0A3F9E4E74F
:10E6E0003DE40100F42A00200400FA0500ED00E0FA
:10E6F00061E4010035E401007047000080B20028A9
:10E7000008D1BFF34F8F044A044BDA60BFF34F8F39
:10E71000C046FDE77047C0460400FA0500ED00E082
:10E7200010B5002204000270431C11341A7001332A
:10E73000A342FBD1418210BD027810B5002A0BD153
:10E740000C781300002C05D1438A488A1B1A5842C2
:10E750004341DBB2180010BD0023012AFAD10A7828
:10E76000012AF7D1013101300F3204F08AFB434214
:10E770004341EEE703000200F0B55F3391B001932F
:10E780001B785C3205000F000092022B7AD1002624
:10E7900007AC24220021200004F08BFB310008A8E4
:10E7A000FFF7BEFFCA235B00EB58079A2676668305
:10E7B000A683E683268493421BD12800993008A9BA
:10E7C000FF30FFF7B9FFB04213D02B009533FF3372
:10E7D000197E227E4A4052060BD1598B628B9142A0
:10E7E00007D1DA69E1698A4203D11A8C238C9A42F3
:10E7F00045D0002F2DD1009B2E001A7818235343AB
:10E80000EB1876331A88D9235B003900EA52303688
:10E810002000FFF785FF21003000FFF78DFF002863
:10E8200011D129009931FF313000FFF785FF002811
:10E830000FD0390002A8FFF773FFA81D02A9FFF748
:10E840007BFF002805D16B6C002B02D0154B002BF1
:10E850001FD1002624220021200004F02AFB3100D1
:10E8600008A8FFF75DFF28009530FF302222210025
:10E8700026766683A683E683268404F011FB0123B3
:10E88000019A1370009B009A1B780133137011B02A
:10E89000F0BD290028009531FF3144302B6D984799
:10E8A000D7E7C04699C101007FB50400002002F0FF
:10E8B000F7FE050003689B6998472B6828009B6A50
:10E8C00098470600050020883436303808280ED8CE
:10E8D00005F082FB050D198727330D4B6500E38892
:10E8E000002B0BD1210030000C3102F067F8300012
:10E8F00002F06AFA300002F0E7F97FBD6B6B30007E
:10E900009B689847F3E7E388002B05D1210030008E
:10E910000C3102F0D9F8EAE700213000FFF72AFFB6
:10E92000E5E76B6B30005B6898470028DFD021007B
:10E9300030000C3102F026F9D9E76A46A38813802B
:10E94000A3895380E3899380238A1234D38002946D
:10E95000AB68EB60E8680028C9D0C368694698478F
:10E96000EB68002BF4D01B69F3E76A46A388138099
:10E97000A3895380A37B1371238AD380638A1434C1
:10E98000138103946B69AB61A8690028AFD0C36899
:10E9900069469847AB69002BF4D01B69F3E76A46D8
:10E9A000A3881380A3895380A37B1371238A123415
:10E9B000D3802B6A0294002B00D198E7144A002AD6
:10E9C00000D194E76B62686A002800D18FE7C368C2
:10E9D000694698476B6A002B01D12B6AF2E71B69E5
:10E9E000F0E72800E388ED30FF30A188002B05D048
:10E9F00085225200934206D00B2205E022000C3201
:10EA000000F0B0FC73E7002200F099FC6FE7C0460D
:10EA100099C1010077DF704778DF70477ADF704770
:10EA20007CDF70477FB502AC08220021200004F093
:10EA300040FA282323806933FF33124E6380E3803A
:10EA4000803BFF3B01AD30002B7004F0B9FB31007F
:10EA500082B22800FFF7E4FF80B200280FD18020A7
:10EA60008000FFF7D9FF80B2002808D12000FFF70F
:10EA7000D5FF80B2002802D1FFF7CCFF80B204B0EE
:10EA800070BDC0468C4A02007EDF704768DF704769
:10EA900070B500200C0002F003FE0368DB6A9847A3
:10EAA0002378142B1ED003D8132B0CD0002070BD5C
:10EAB000152B1FD0222BF9D10369002BF6D06268E9
:10EAC00010889847F2E765680122AB7819005C0866
:10EAD000114022404468DB065B0F002CE6D02888FA
:10EAE000A047E3E78368002BE0D062689178108844
:10EAF0009847DBE76468A27813091207120F012A0E
:10EB000003D0022A0DD0002106E0013BDBB2002138
:10EB1000022B01D8064AD15CC368002BC6D02088DE
:10EB2000E6E70421012BF7D00131022BF4D0EAE70C
:10EB3000924A0200014B18787047C0463D2B0020D6
:10EB4000F0B51D002F4B87B001921A780023070003
:10EB50000C009A4204D1FFF7DDF9002803D00B2303
:10EB6000180007B0F0BD002D0ED003A92220039598
:10EB7000FFF78CFF002807D006230828F0D01138B3
:10EB8000434243410433EBE7002302AA1000137011
:10EB9000FEF7D8F9011EE2D101251B4E2F40337834
:10EBA0002C40AB433B43620002271C000720019B23
:10EBB000BC43034014431C22BB4094431C433470A9
:10EBC00003AC103A200004F074F909200F4B310017
:10EBD000039302AB0522C018277104F061F92100EC
:10EBE0000B48FEF727FA002807D007230428B7D0E0
:10EBF000013B0828B4D00533B2E7024B1D70030077
:10EC0000AEE7C0463D2B00200828002091EA010015
:10EC10003E2B002010B50748FEF7F6FA0023984275
:10EC200006D00733042803D0013B082800D0053361
:10EC3000180010BD3E2B0020002373B501930F4B2D
:10EC400001AD1B780E0029002B70FEF7FBFC041EA3
:10EC500005D00423052800D00733180076BD310005
:10EC60002800FEF721FA23000028F6D00723042805
:10EC7000F3D0013B0828F0D00533EEE73E2B00200F
:10EC800073B5104C0E00050005222100684604F003
:10EC900007F9012E03D0022E0FD002230BE002222F
:10ECA0002378B3439343694628002370FFF7ECFEB3
:10ECB000031E00D00B23180076BD012322781343D6
:10ECC000B343F0E708280020094B10B51A7801007B
:10ECD0000923002A09D00748FEF71EFA00239842AC
:10ECE00003D003330E2800D00333180010BDC046F4
:10ECF0003D2B00203E2B002010B5FEF7F2FC10BD8E
:10ED0000022310B50B708C330B713F3B4B712D33CD
:10ED10008B714A1C0431FEF7BBFC10BDA2DF7047AB
:10ED2000A3DF704763DF704710B586B06B46DC1D0C
:10ED3000002302AA2370C15C99540133102BFAD12D
:10ED400021001000FFF7EEFF0023984200D1237846
:10ED5000180006B010BD00000122F0B5438A87B04C
:10ED60000393037804000192002B3FD0254E8318B3
:10ED70000093336800279C462349BC4516D01122D6
:10ED800000237A438A18981E012804D90098D55C7C
:10ED9000C05C854208D10133102BF4D11120784397
:10EDA00009180B7C019321E00137E6E70098FFF793
:10EDB000BBFF237802900190002B01D11234009404
:10EDC000042F13D01125380068430F4C102220184F
:10EDD000009904F065F8002233685D436419A2705D
:10EDE000E2706A46127A0133227433606A461279FD
:10EDF00005AB9A705888039B00040343180007B0C2
:10EE0000F0BDC046402B0020442B0020F0B59BB045
:10EE10001F0020AB029102CB0BAC1B880391049323
:10EE200022AB1B880190059323AB1B78200006932F
:10EE300025AB1E8826AB1B78079327AB1B7808935E
:10EE400008ABD91D0A70012204F02AF83023227879
:10EE50001A4212D00CAC03220021200004F029F841
:10EE60000622A37893431A0002231343A3701023AE
:10EE70000122190011432170617013AC1C22002182
:10EE8000200004F016F80BAB1D7830232B40591EE0
:10EE90008B410CAA5B421A4025706261002E05D09E
:10EEA000249B002B02D06360268166810DAC032277
:10EEB0000021200003F0FDFF0121079B089A0B4071
:10EEC0000A401201DB001343069A0A401100022295
:10EED00013430B43A37032231D421AD0781E04281B
:10EEE00017D82178233B994305F076F803080D21C4
:10EEF000230001220A431340102208E001220A43A2
:10EF00001340202203E001220A431340302213431E
:10EF100023700C231D421ED0781E04281BD8617854
:10EF20000333994305F058F8070C113133000222DE
:10EF3000E0E70222E3E701220A431340102208E03F
:10EF400001220A431340202203E001220A43134016
:10EF50003022134363700EAD14220021280003F009
:10EF6000A8FF029B2A000E936B461B8A13A92B81D4
:10EF70006B469B8A0198AB81039B6C602B61289B3D
:10EF8000FFF7CCFE80B21BB0F0BD0222D4E7022214
:10EF9000D7E7F0B589B000930EAB1B8805000F00D2
:10EFA0001600019303220FAB002102A81C7803F086
:10EFB00080FF0122022314401C4302AB9C7002A874
:10EFC00010231100020003AC19430170517020009E
:10EFD0001422002103F06DFF02AB63606B461B88B7
:10EFE000109A23816B469B88210028000397A381F8
:10EFF0002661FFF795FE80B209B0F0BD93DF704740
:10F0000010B50368002B01D00800984710BD10B55B
:10F010000368002B01D00800984710BD03680A68F8
:10F0200070B505000C00934201D0002070BD03793B
:10F03000002B1AD10B79002BF7D1C28ACB8A9A42C6
:10F04000F3D12A7E237E53405B06EED16A8B638B1D
:10F050009A42EAD1EB69E2699342E6D1238C288C8B
:10F06000C01A42424241D0B2E0E7012BDDD10B7918
:10F07000012BDAD105310530102203F002FF002800
:10F08000DFD0D2E7F8B504000D00222203F008FF1C
:10F090002A0023002432243343CA43C32B6B0021AC
:10F0A00023632300616338330832C1CAC1C36B6C68
:10F0B00020006364A164F8BD70B506000D00040073
:10F0C000E43629002000FFF7A9FF002802D14C34C4
:10F0D000B442F6D170BD70B50D0004000B6810226B
:10F0E00003600B790371CB8A0531C382053003F0CD
:10F0F000D7FE2B7E200023766B8B6383AB8BA383A1
:10F10000EB8BE3832B8C238470BD000007B501AB30
:10F11000198019005A80FFF771FF032310280CD0C3
:10F1200004D80023984208D00B2306E005231128B9
:10F1300003D0034A013B9042F6D118000EBDC046F1
:10F140000230000070B50200002504000560057162
:10F15000431D15321D7001339A42FBD12000E58218
:10F1600025766583A583E58325840C220021243040
:10F1700003F09FFE2000064B656323630C220021F1
:10F18000383003F096FE034BA5642000636470BD25
:10F1900001F001000FF0010010B50400FFF7D2FFED
:10F1A00020004C30FFF7CEFF20009830FFF7CAFF59
:10F1B000200010BDF8B5040016001D00FFF78BFFFE
:10F1C00023003200243383CA83C3F36800222363FD
:10F1D0002300290062633833C1C9C1C3EB68200032
:10F1E0006364A264F8BD70B58AB004000190038C1A
:10F1F0000E000168132003ADAB8013780391AB714F
:10F20000538A511C684410222B8303F049FE2000CE
:10F210006E8302952430236B01A998470AB070BD14
:10F2200007B503006A460090117138305B6C69467F
:10F23000984707BDF0B50C00A7B068461500FFF76A
:10F240004AFF220009AB243243CA43C30021236B87
:10F250000D910C9308320EABC1CAC1C3636C13A8E5
:10F2600011931291FFF76EFF13A92000FFF70AFF19
:10F2700029006846FFF7D4FF27B0F0BD10B50400A1
:10F2800096B003A8FFF75EFF03A92000FFF7C6FEB4
:10F29000002802D1002016B010BD0F9B226B0193F5
:10F2A0009342F7D121000C2224310CA803F0E9FD90
:10F2B0000028EFD1149B626C9342EBD121000C2209
:10F2C000383111A803F0DDFD030058425841C0B2A7
:10F2D000E1E770B505000E000400E43531002000C0
:10F2E000FFF79CFE002806D02000FFF7C7FF00288C
:10F2F00001D1200070BD4C34A542EFD10020F9E7C8
:10F3000010B50400FFF7E5FF011E03D00022200026
:10F31000FFF790FF10BD70B505000E000400E43546
:10F32000238CB34206D12000FFF7A8FF002801D1AB
:10F33000200070BD4C34A542F2D10020F9E770B531
:10F3400004001500FFF7E7FF011E03D02A0020008C
:10F35000FFF770FF70BD10B5FFF7DDFF431E98414A
:10F36000C0B210BDF0B58BB0070001911600FFF7D9
:10F37000D2FF051E33D0002433889C421ADA0623BC
:10F380006343F3185A889B880292039300239C4698
:10F3900005AA13706146D01801334170102BF9D1C2
:10F3A0006B469B890299280001345382A4B2FFF76F
:10F3B0001AFFE1E70622013B5343F6187188EA8BF6
:10F3C000013189B2914205DD002229003800FFF7A2
:10F3D00031FF04E00198FFF799FE021EF5D10BB052
:10F3E000F0BD70B505000400E4352000FFF746FFCE
:10F3F000002803D14C34AC42F7D10400200070BD8A
:10F40000F0B54C8B1E000234CB8B99B0A4B2070030
:10F410000D0003920193A3420DDA0822002105A8F2
:10F4200003F047FD0595F36805A9300098470024CF
:10F43000200019B0F0BD0B8C19000293FFF78BFF71
:10F44000002801D00524F3E73800FFF7CAFF071EA4
:10F45000F8D02100019A0298FFF758FE041EE7D168
:10F4600029003300039A05A8FFF7A4FE05A9380078
:10F47000FFF708FEDCE70160012170B51C1C04AB3E
:10F480001D8805AB45830D001B880284027E254044
:10F4900083838A4363080B402A4302258B40AA4397
:10F4A0001A430423A5080D40AD009A43E6080E4018
:10F4B0002A43DB18F6009A43250932430D400833EE
:10F4C0002D019A432A43202563090B40AA435B017F
:10F4D00013434022A4092140890193430B4303763F
:10F4E00070BD016000218C46F0B589B00FAD1E00E3
:10F4F0002B8810AD0EAC00932B880284247803AACD
:10F50000019311706346571801317B701029F9D1AE
:10F51000031D5682E0CAE0C360CA60C36B46012285
:10F520001B88150043836B469B8825408383037E9D
:10F530006608934316402B4302259640AB43334362
:10F540000426A5081540AD00B3432B430825E60863
:10F550001640F600AB432509154033432D018B437C
:10F560002B432025610911404901AB430B43402146
:10F57000A409224092018B431343037609B0F0BDE6
:10F5800070DF704771DF704772DF704773DF70475D
:10F5900074DF704775DF704776DF704777DF70473D
:10F5A00078DF704779DF70477ADF70477BDF70471D
:10F5B0007CDF70477DDF704786DF704787DF7047ED
:10F5C00088DF70471420704764207047A0208001B6
:10F5D000704710B5FFF7F2FF031E00D00523180097
:10F5E00010BD10B50400FFF7D3FF0323002805D199
:10F5F00001210300583422788A432270180010BD7C
:10F6000008003B2110B58A4200D02839FFF7C4FF1B
:10F6100003005A1E934103205B42184010BD0300B3
:10F6200010B5FE330A00D98B03681B6A984710BDDA
:10F6300010B50800FFF7BAFF03005A1E93410320DC
:10F640005B42184010BD10B50800FFF7ADFF030086
:10F650005A1E934103205B42184010BD080010B5AC
:10F660001100FFF797FF031E00D00323180010BD01
:10F67000080010B51100FFF79DFF031E00D0032303
:10F68000180010BD10B50800FFF78AFF031E00D058
:10F690000323180010BD10B50800FFF783FF031EF9
:10F6A00000D00323180010BD10B50800FFF776FF47
:10F6B0000023984203D00533112800D0023B1800E4
:10F6C00010BD0000024B0B60092313607047C04659
:10F6D000304B020008207047B8300170002070479E
:10F6E000B93001700020704702207047B8300078B0
:10F6F0007047B930007870470020704710B5036834
:10F70000002B01D00800984710BD10B50368002BEE
:10F7100001D00800984710BD0200030010B5F33275
:10F7200011786C309B6F984710BD10B5002801D040
:10F730001CC91CC010BD704710B5446883686110B7
:10F740000268E00701D5585882585818904710BDF4
:10F7500013B50C001100012C0DD86B460622581C65
:10F7600003F09EFB00206B4669461C70FFF708FF04
:10F77000002803D103E0A31E012B01D9032016BDED
:10F780000120F0E737B568460D001400FFF7FAFED8
:10F79000032300280DD1002D02D06B461B782B705F
:10F7A000231E06D06B460622591C200003F078FB6E
:10F7B000002318003EBDF8B506000D000024072701
:10F7C0003300BA331B789C420FDA6B799C420CDA17
:10F7D0003800604301002B68BB31711818180722EC
:10F7E000013403F05DFBE4B2EAE72C710020F8BDC0
:10F7F000112337B5080001AC23700D0003F0E0FCC5
:10F80000290082B22000FFF7D3FE031E00D003239D
:10F8100018003EBD012110B5044A0800FDF71EF98D
:10F82000031E00D00B23180010BDC046C9FC010008
:10F83000F8B503680700DB6C0D000C7998470323CB
:10F84000844227DC002307212A79934208DA080042
:10F8500058432C68005D03281BD00133DBB2F4E76A
:10F860003E000024BA3634702B799C4214DA07210A
:10F8700061432B683078591807235843BB301A006E
:10F88000381803F00DFB3378013401333370E4B2E0
:10F89000EAE704231800F8BD0023FBE710B50C00CD
:10F8A000C97F01201F2902DC002901D1032010BDDE
:10F8B000D37F2000FFF768FE0028F7D1208CFFF7E8
:10F8C0006FFE0028F2D1F2E7F0B50500040087B022
:10F8D000AC356B68AB60A868002807D0C36821000E
:10F8E0009847AB68002BF4D01B69F3E72600B036CD
:10F8F0003568002D05D02F69280002F03BFC3D0043
:10F90000F7E72200FC215832137835600B40137062
:10F91000260023000A3656331D709D711F222900D0
:10F92000300003F0C6FAF5772A361F22290030008E
:10F9300003F0BFFAF577606E002804D0056902F085
:10F9400019FC2800F8E7250098356066286800282B
:10F9500004D0066902F00EFC3000F8E728602500AC
:10F96000A4352E68002E05D03769300002F002FC65
:10F970003E00F7E72E6001AD31000C22280003F0B5
:10F9800098FA23002A006C3383CA83C3094BE667C5
:10F99000A3670C223100280003F08BFA2300803388
:10F9A00007CD07C33000044A90341A60266007B0C0
:10F9B000F0BDC0460BF70100FDF6010010B50400D4
:10F9C000FFF782FF03000620002B0AD1220001214D
:10F9D0001800FE324942D183BA34463A137053704C
:10F9E000237010BDFE30C1837047FE30C08B70475E
:10F9F000F0B5060093B000200C0001F051FE036842
:10FA0000DB6A9847FFF796F806AB00280ED0002275
:10FA10001A7105AA0692082218001A730AAA9A6097
:10FA2000FFF752F9002803D013B0F0BD1871187316
:10FA300000232373237101933300BA331B78019A97
:10FA40009A4241DA07235343F218BB321278BB3390
:10FA5000022A31D10025F318029306AF3B7B9D4269
:10FA600023DAAB000393089BAA0099580298FFF78A
:10FA700043F900281DD0237BAA009C46BB68991837
:10FA80000293634608689A00A368D0506346013326
:10FA900023733B7B5A1E954205D00C481B180298D5
:10FAA0009B001B580B6006AB1A73019B0133DBB242
:10FAB000C1E70135EDB2D0E7227920689100F31853
:10FAC00001320B502271F0E70020ADE7FFFFFF3F4E
:10FAD00070B50C0009789AB0022201293ED06388E3
:10FAE000032935D1A03B1F4D9BB20A00AB4235D84C
:10FAF0001D4BA1880322994230D80AAB009312AB68
:10FB000002936A460023050013711373B8352B78EE
:10FB1000002B04D06946FFF76BFF021E1ED104AE16
:10FB200018220021300003F0C4F92378300033702C
:10FB30002B7833726B46F36063883382A3887382B9
:10FB4000FFF724FD431E984103224042024005E096
:10FB5000203B06499BB203228B42C9D910001AB040
:10FB600070BDC046603F0000FF3F0000E03F000066
:10FB700070B598B008AB009310AB02936A460023AF
:10FB8000050013711373B9352B780C00002B1FD1AE
:10FB9000012604A80378A1792A783140B3430B43A6
:10FBA00032400221B2408B43134303706B464360E3
:10FBB0002388038163884381A3888381FFF7FCFC4A
:10FBC00003005A1E934103205B42184018B070BDD9
:10FBD0006946FFF70DFF0028DAD0F7E7F0B59DB0D2
:10FBE0001F006B4605001A70581C0622229E02ACAC
:10FBF00003F056F9002F2ED03B8823807B8863804A
:10FC0000BB88A380FB88E3800CAB04A9049314ABEE
:10FC10008B602F000023B9370B710B733B78002BDF
:10FC200021D101203B78022708A903405A000B7814
:10FC3000BB4304AF4F601343002E1BD12A00323266
:10FC400012788343024013430B70AB8D0B81EB8D15
:10FC50004B812B8E18E032232380DB186380F53331
:10FC6000A780FF33CFE72800FFF7C2FE0028D8D0D7
:10FC70001DB0F0BDB2798343024013430B7033884B
:10FC80000B8173884B81B388220068468B81FFF714
:10FC900097FC030000208342EAD00630082BE7D00F
:10FCA00006D80130042BE3D0834209D10420DFE7DA
:10FCB0000520112BDCD0034A9342F7D0102BF5D04E
:10FCC0000B20D5E70232000030B5040087B00020D9
:10FCD00001F0E6FC03689B6998470300F3331C704E
:10FCE000114B050002930023049003930D300F4B3A
:10FCF000FF300400F4350593FCF7CCFE002C09D04E
:10FD0000059B002B03D05B6802A920009847059B48
:10FD10000193E3600021280002F0B4FD02A8FCF783
:10FD2000B9FE07B030BDC04619F70100984A02007D
:10FD30000220704700207047704790DF704795DFC2
:10FD4000704797DF704793300078431E9841C0B2E8
:10FD50007047080010B511001A00FFF7F0FF0023EC
:10FD6000984203D01138431E9841431D180010BD1E
:10FD700030B585B001AD6B806B4600241B8C2970BB
:10FD8000EB80099B290010006C70AC800393FFF797
:10FD9000D8FFA04207D00534112804D0034BC01867
:10FDA000444244410634200005B030BDFCCFFFFF83
:10FDB00010B50368002B01D00800984710BD10B59E
:10FDC0000368002B01D00800984710BD10B50368E8
:10FDD000002B01D00800984710BD10B5ED30FF3062
:10FDE000FFF70EFB10BD10B5ED30FF30FFF764F9E3
:10FDF00010BD10B5ED30FF30FFF782FA10BDF0B541
:10FE000087B001AB1A000C00E0CCE0C20200B532B2
:10FE1000FF32C96870CB70C20023B530FF30C160BB
:10FE2000036107B0F0BD0000F0B597B0059303681B
:10FE300007AC1B6804910393110023000600A1C9BD
:10FE4000A1C30025D36829000C220CA80A9311AF86
:10FE50000B9503F02EF8094B290038000F931095ED
:10FE6000FEF75EFC059B2200009301970CAB049902
:10FE70003000039CA04717B0F0BDC046BFFD010095
:10FE8000F0B50026050089B003AC86803100200063
:10FE9000FEF746FC2100A81D142203F001F83100F2
:10FEA0000C22200003F005F82B0022001C3383CA2B
:10FEB00083C30F4B3100AB62EE6220000192FEF76C
:10FEC0002FFC2B002200303383CA83C3019A03CA5C
:10FED00003C30C223100200002F0EBFF2B0044335F
:10FEE00007CC07C33000034B6E652B6509B0F0BD2E
:10FEF000B1FD0100BFFD010070B50400E36A23639A
:10FF0000206B002807D0C36821009847236B002B83
:10FF1000F4D01B69F3E7E06A002804D0056902F019
:10FF200029F92800F8E7E062A068002804D00569F4
:10FF300002F020F92800F8E7A0606069002804D0EA
:10FF4000056902F017F92800F8E76061206A0028C7
:10FF500004D0056902F00EF92800F8E7206270BDB0
:10FF600070B586B00400FFF7C7FF0625061E30D126
:10FF700020003430FFF784FF3500002829D123000A
:10FF800090331E705E709E70DE70C2235B00E65080
:10FF9000E218863BFF3B53609360D3601361CE222F
:10FFA0005200A65022009D32FF3201AE5360936092
:10FFB000D360136129000C22300002F07AFF230085
:10FFC000B533FF3307CE07C3B534034BFF34E360CB
:10FFD0002561280006B070BDCDFD010070B500257B
:10FFE00004008AB001AE24220021300002F061FF3B
:10FFF000290002A8FEF794FB200095302222310050
:020000022000DC
:10000000FF3035767583B583F583358402F048FF7C
:10001000236820005B68984723005F331D70A84267
:100020000DD0C0235B00E358AB4208D0054BAB4278
:1000300005D020008130FF30A188C36898470AB0FE
:1000400070BDC04699C1010010B53430FFF7C6FF3E
:1000500010BD0000F0B591B0019106A904009C46C6
:1000600010000B00E0C8E0C3D368654604930BABF7
:1000700018000293C8CDC8C0200027003430059076
:1000800093373D780620002D3FD16046C368039327
:1000900050239C46A444634645C945C3049B029A29
:1000A000E36523002566783343CA43C32000039ADF
:1000B00016991A6004331D6014223A3002F0F0FEE3
:1000C000200014221799643002F0EAFE6B469B88E8
:1000D000012123872300903491331D702A0025705D
:1000E00001983970FFF729FE04002800002C0CD07D
:1000F0000598FFF773FF0520112C06D0044B9C4296
:1001000002D00130072C00D1042011B0F0BDC04650
:1001100002300000A0DF7047A4DF7047A5DF704702
:10012000A6DF7047A8DF7047A9DF7047002070473F
:1001300013B504680093A46813000A000149A0479E
:1001400016BDC046FFFF0000F7B50D0016000021E8
:10015000082268461F00089C02F0ABFE6A4623880E
:100160003100280013800197FFF7D8FF03230028F0
:1001700003D16B461B88238003001800FEBD0000DE
:1001800037B506AC257804680195009324691300FF
:100190000A000149A0473EBDFFFF0000F8B504007A
:1001A00000200D00160001F07BFA03689B69984758
:1001B00023689F69FFF719FC330001002A00200023
:1001C000B847F8BDF0B5D48B02001E000023457976
:1001D00085B0C4329D4224D908321700083F3F88B9
:1001E000A74211D11833DB00C3180E241A89022349
:1001F0006C442380036803AD00949F682B00B847CC
:10020000002803D005B0F0BD0133E3E723880620C2
:10021000022BF7D12B8800209B07F3D001233370EA
:10022000F0E70420EEE70000F0B589B00193070085
:100230000FAB0D0016000021082202A81C7802F066
:1002400038FE0EAB1B8802AA1380019B0393002C7F
:100250000BD031002800FFF75FFF421E90410323BF
:1002600040420340180009B0F0BD3B007A79C43326
:10027000A2420ED90833190008390988B14219D1B0
:1002800030221C34A4003F197B680133DB7F13420A
:100290002ED102AA31002800FFF73EFF0C2823D000
:1002A00014D8052820D0072820D000239842D9D080
:1002B0000B23D7E70134DBE7264B9A4204D0264BC9
:1002C0009A423BD10623CDE70523CBE710280DD07A
:1002D00003D808230F28C5D0EAE7204B984203D063
:1002E000D0239B019842E3D10323BBE70423B9E762
:1002F000102213405A425341002004AC0133A37032
:10030000019B2680E3600EABA360154BA0809D424D
:1003100007D101F0C5F903689B699847FFF765FBB2
:10032000050021002800FFF7FBFE002382B29A425D
:1003300098D0112AC8D0BFD8082AC3D002AA310049
:100340002800FFF7E9FE0523002800D18AE7023BD9
:1003500088E7C0460330000001340000023000008E
:10036000FFFF0000F0B5050097B008002E240B91A8
:10037000FEF7F2FC04ABE4181090220010A9012053
:10038000FFF7C8FE002802D0032017B0F0BD238875
:100390000B9A0A9093830B9B0A9A1B7D9A4200DB6F
:1003A0009CE06B79132B01D90720EEE70B9B9B692F
:1003B0000C930A9B0C9A9B009C586369002B00D0FD
:1003C00091E0638B002B00D08DE0631CDB7F022B60
:1003D00000D088E00A980130C3B20A93DBE769795C
:1003E000A31CC900C4316918621CDB7FD27F08914D
:1003F00021002A310978002007912100293109784C
:1004000006910D9905910C990491217F0391218BFF
:100410000291618B01916169009110A9FEF7F6FCD0
:100420000028B1D16B7907001A001C3292001833F2
:10043000AA18DB005460EB189B88E3836B790133C7
:100440006B71230028331B789F42C3DAC2235B0001
:10045000EB5C072BA8D8626ABB009E5800231800EB
:1004600011A90B70CA1801335070102BFAD1314BFF
:1004700030004B82FEF760F90C9000282BD1300041
:10048000FEF76AFCC2225200AA5C738BC332520090
:10049000AA180292327F10900192328B10A900921A
:1004A00072690C98FEF775FD002800D06CE7C22336
:1004B0005B00EB5C1A0058329200C033AA185B0054
:1004C0005660EB18DB88C222F383C2235B00EB5C2F
:1004D00052000133AB540137FFB2B2E72B79002051
:1004E00001332B7151E72000FEF736FC00261090F7
:1004F0000D960C96230028331B789E4200DB6EE796
:10050000626AB3009F580023180011A90B70CA1823
:1005100001335070102BFAD1064B38004B82FEF796
:100520000BF9002803D07B8B0D937B690C9301366C
:10053000F6B2DFE70129000070B50C220D000021A2
:10054000040002F0B6FC00232361024B256020006A
:10055000E36070BDCDFD0100F0B5040087B0236BF2
:100560006363606B002807D0C36821009847636B02
:10057000002BF4D01B69F3E7206B002804D0056939
:1005800001F0F8FD2800F8E7206320716071E06851
:10059000002804D0056901F0EDFD2800F8E7E060CF
:1005A000A069002804D0056901F0E4FD2800F8E7FF
:1005B000666AA061002E05D03569300001F0DAFDD1
:1005C0002E00F7E701AD310066622800FFF7B4FFA7
:1005D00023002A00383383CA83C3EB683100636485
:1005E000A6642800FFF7A8FF23002A004C3383CA23
:1005F00083C3EB683100A365E6652800FFF79CFF25
:1006000023002A00603383CA83C33000EB68266767
:10061000E36607B0F0BD70B50500FFF79DFF04006D
:100620000620002C1DD1280050222100743002F039
:1006300040FC2800653020222100FF3002F039FC08
:10064000280008222100C43002F033FC2800873043
:10065000FF301022210002F02CFCC22320005B009E
:10066000EC5470BD70B504000D006368A360A06811
:10067000002807D0C36829009847A368002BF4D04E
:100680001B69F3E770BD10B5C368984710BD000043
:10069000030010B50800110004280CD005280ED066
:1006A000032807D118009B6B3830002B02D0074B72
:1006B000002B08D110BD1800DB6C4C30F5E718009A
:1006C0001B6E6030F1E7FFF7DEFFF3E799C1010031
:1006D000F0B50B888FB005000C00512B00D164E001
:1006E00005D8012B4CD0502B2FD00FB0F0BD522B82
:1006F00054D0532BF9D1CE8805212B0000206A79E4
:10070000C433009000988242EFD9083318000838AB
:100710000088B04255D1062900D196E0072953D070
:100720003200022900D0DDE0A3880AA90B804E80A8
:10073000237A0B71A38BCB80E38B20340B81CC60AD
:1007400028001430FFF78EFFCFE702000023CE8889
:100750004179C83299420FD9083210000838008810
:10076000B0420BD11C339B00EB185A68531CD87F46
:100770003023184200D0A1E00221BEE70133E9E7AF
:100780000C7AEB682B6128690028AED0C368210081
:1007900098472B69002BF4D01B69F3E70023888866
:1007A0001A001900FFF7C0FC9FE78B79012B05D0D9
:1007B000022B00D099E70E8907219EE70E890621BA
:1007C0009BE7009801309CE71022002102A802F06C
:1007D00070FBA38802AA13805680E38B06AF938038
:1007E000238C0021D3802300102222333800019370
:1007F000049302F05EFB02233B70009B1C339B00C2
:10080000EB185B681A002A3211780022914206D058
:10081000180002A9DB6C4030984702AB9A89A08887
:100820003900BA80FFF77EFCBB88002B00D05CE764
:10083000A3880AA90B804E80A37A0B71E38BCB802F
:10084000238C0B81019BCB607AE706AF102200213D
:10085000380002F02EFBA3887E803B80A38B0AAE7B
:10086000102200213000BB8002F023FB01230098FE
:1008700033701C3080002D186B681A0029321178F3
:100880000022914205D0180039002C309B6B98470C
:10089000BA89B280BB89002B0BD1BA68002A08D074
:1008A000B17901330B43B371BB883381FB88F260AC
:1008B0007381A0883100FFF735FC16E7A31CD97FB0
:1008C0000134E37F09020B43810602D503219C0713
:1008D00007D40421C00604D503390B4059425941BD
:1008E0000331D28B2800FFF7D3FEFEE690DF70477E
:1008F00092DF704794DF704770B50025040029002F
:1009000020C0FDF70DFF25766583A583E58325844B
:10091000200070BD016810B5020000290AD0130044
:100920004C1E89004068521810C3934204D0596885
:1009300002C3FAE70120404210BD016810B5020071
:1009400000290AD013004C1E89004068521810C3B9
:10095000934204D0596802C3FAE70120404210BD17
:10096000F7B50600182733687569002B1DD02B00DA
:10097000032274685F337C431A700F4904222C19D8
:10098000684602F08DFA230074331B8801AA138095
:100990007634238869465380A888FFF7ABFF002888
:1009A00009D03000FFF7B6FFDDE75F352B78032B6A
:1009B00001D1023B2B70F7BDA84B020003000022BF
:1009C000F0B55C331A700A788BB004000133042A46
:1009D0002AD8A8201A70012200262700400052427F
:1009E000231826508D1C5A609A60DA601A616037AD
:1009F000019023005D331B789E422AD2AB78002BF6
:100A000014D1019B0199E3585A1C62509A002300AB
:100A10005133FF339B18AA885E60EB88BA82FB8251
:100A2000013608351837E4E70422D2E7298805A8FB
:100A3000FDF776FEAB8814220293EB8805A93800F7
:100A4000039302F02DFA6B461B89BB826B469B8990
:100A5000E5E72300FC335B6D002B04D02000513010
:100A6000FF30FFF77DFF0BB0F0BD0000F7B50600CB
:100A7000242733687469002B1CD0230004225F33C1
:100A80001A70042275680F497D43651989186846F4
:100A9000C03502F005FA6B8B01AA13800133538035
:100AA000A0886946FFF726FF002809D03000FFF72D
:100AB00044FFDEE75F342378042B01D1023B23702F
:100AC000F7BDC046A84B02000300F0B50A7887B016
:100AD00004000F005E33042A35D8B4211A700122B5
:100AE000002549006318524265505A609A60DA60E6
:100AF0001A61A83BBE1C0493059123005E331B784A
:100B00009D4232D2B3783189002B1ED1059B0598C6
:100B1000E3585A1C22509A0023006933FF339B1874
:100B20005D600A236B430191F188FB180091A28854
:100B30009B79A16D0498FEF79EFC049B013524333C
:100B40000A360493D9E70422C7E733880291F18873
:100B5000684601910A21694379188979A288017050
:100B6000A16D0498FEF7BDFCE7E72300FC33DB6EC4
:100B7000002B04D020006930FF30FFF777FF07B06B
:100B8000F0BD00007FB503005F331B780500032B29
:100B90002DD106002E4B0A685136FF369A4222D1DB
:100BA00010228968684602F07BF93000FFF7B2FE38
:100BB000182444432C1923000122200060331A70AA
:100BC00069460F32613002F06BF9230021006E3369
:100BD0001A786D3423781202723113430B8030007F
:100BE000FFF7BEFE7FBD3000FFF794FEFAE7042B4F
:100BF000F8D10600174B0A686936FF369A4223D1AE
:100C0000896810220331684602F04AF93000FFF784
:100C100094FE242444432C19230001222000C433D1
:100C20001A7069460F32C53002F03AF923002100EC
:100C3000D2331A78D13423781202D63113430B8081
:100C40003000FFF713FFCDE73000FFF776FEC9E76E
:100C500001001000010013000B68002B04D0034BAF
:100C600003600023436070470360FBE799C1010004
:100C700010B5C368984710BD73B505000800A9807A
:100C80002900002402265E310C704E7001A90A80F2
:100C90004B80FFF72DFE102812D00BD8A04207D0B2
:100CA0000634082800D00B2421002800FDF762FD3F
:100CB000200076BD05241128F6D0024B9842F2D1CF
:100CC0000424F1E702300000F0B5040018268FB0CC
:100CD00023005F3301931B78012B6ED12500200088
:100CE0005C355D302B780278934253DA0021A71DE2
:100CF00004A8FDF715FD04A93800FDF71DFD002827
:100D000012D129783800714360316118FDF714FD64
:100D1000002809D12B7801332B70D9E7A088FFF781
:100D2000E5FD002849D045E0E369002B0DD0244BB8
:100D3000002B0AD0002109A8FDF7F2FC200009A928
:100D40003030FDF7F9FC00281BD1019B1F78012FE3
:100D5000E0D1210002A84431FFF77EFF029B002B67
:100D600002D1039B3B42D5D02A78A1887243A218B6
:100D70001300743276331B8812882000FFF77CFF43
:100D8000A6E7200029781C30714360316118A36AFE
:100D90009847DAE7002A10D0002B0ED05A1E1823ED
:100DA00053430022E31876331988064B02702A70E9
:100DB0009942B3D12000FFF711F90FB0F0BDC04642
:100DC00099C10100FFFF00000300F0B55F339DB043
:100DD00001931B780400022B00D094E0050024222C
:100DE0000021953513A802F064F8FF3513A8FFF72A
:100DF00083FD13A92800FEF711F9011E05D1230078
:100E00005E331B78002B00D081E000253EE02426D5
:100E10006E4333002700C033E3180293A319E43371
:100E20005B8B029A013BD383002130370EA8FDF77C
:100E300077FC0EA93800FDF77FFC0390002811D144
:100E40003100C43161183800FDF776FC00281BD052
:100E5000039913A8FDF764FCA01D13A9FDF76CFC12
:100E6000002811D126004436310007A8FFF7F4FE10
:100E7000079B002B04D002993000FFF7F9FE03E036
:100E80000122089B1342F6D10135EDB227005E37EF
:100E90003E78B54211DA019B1B78022B33D1731EC9
:100EA0009D42B4D124235D4320006519290095306B
:100EB000C0312222FF3001F0F3FF019B1B78022B8F
:100EC00021D1002E21D0731E24265E43A619C036E0
:100ED000B38B01339BB222005C32117818224A4353
:100EE0000021A218763212883970934208DA0EA9CE
:100EF0000B804A80A088FFF7FBFC002803D00B2161
:100F00002000FDF737FC1DB0F0BD1D4BE3E72300CB
:100F1000D9222700DA331B885200013BA352303715
:100F200013A8FDF7FDFB13A93800FDF705FC061E0D
:100F300013D121009931FF313800FDF7FDFB002866
:100F400000D162E7310009A8FDF7EAFBA01D09A95D
:100F5000FDF7F2FB002800D057E7260044363100A9
:100F600005A8FFF779FE059B002B03D1069BDB0745
:100F700000D44AE729003000FFF77AFE45E7C04673
:100F8000FFFF0000022070470220704700207047DA
:100F90000020704700487047FFFF000002207047A4
:100FA00002207047022070470220704702207047DD
:100FB00002207047022070470220704702207047CD
:100FC00002207047022070470220704702207047BD
:100FD00000231360704700207047022070470220F2
:100FE000704702207047022070470220704700209F
:100FF0007047002070470020704702207047022091
:1010000070474160704781607047C16070470161FF
:1010100070474161704702207047022070470220EC
:10102000704702207047022070470220704702205C
:10103000704790DF704766DF704748DF70475F306A
:101040000078431E9841C0B27047007970470C3059
:1010500070470C30704710B503689B6B9847FFF7DB
:10106000ECFF10BDF7B50193036800915B680400C5
:101070001700984705000620002D3BD123003A00B9
:101080001C3343CA43C3FB68019AA3622300E56291
:10109000443343CA43C3019B1422DB680899236588
:1010A0006565A01D01F0FCFE200014220999303076
:1010B00001F0F6FE6B461B880121A38023005D33FF
:1010C0001D70013B1D70D9702A000098FFF7B1FF19
:1010D00006002800002E0DD0236820009B6898474A
:1010E0000520112E06D0044B9E4202D00130072E5F
:1010F00000D10420FEBDC04602300000044B10B5F4
:101100001A78002A03D000221A70FDF7E1F810BD0A
:101110003C2B0020FC3070B5846B0500002C0DD1F9
:10112000242001F01BF8064B44608361054B84606A
:10113000C46004614461C4610360A863A86B70BDAE
:10114000844C0200584D0200082370B596B002AAE4
:10115000137106AA029202AA137310000EAB0D00BF
:101160000493FDF7B1FD00280AD10400072602AB65
:101170001B799C4217DA6B799C4205DB2C711FE0CE
:1011800000232B7116B070BD3000029B60430193A9
:101190002A680199A300101859580722013401F058
:1011A0007FFEE4B2E3E72C710726002402AB1B7B31
:1011B00029799C4213DA6B790919994202DB29716A
:1011C0000020DFE771432B685918049B0193019AB3
:1011D000A30098580134FDF793FDE4B2E6E76418E4
:1011E000CCE710B5FDF716FD10BD10B508001100D5
:1011F000FDF746FD10BD10B508001100FDF71CFD00
:1012000010BD10B5080011001A00029BFDF798FCF4
:1012100010BD00007FB503791548002B1CD0154E7A
:10122000154C33782000002B16D102AD2800FFF7B3
:1012300002FF002815D16B88592B12D12B78AA8870
:10124000D91F01290AD800920C4A2021200001F060
:101250000DFF01233370200004B070BD0092084AD6
:10126000F3E720220749200001F0B1FFF3E7C04671
:10127000844D0200E02C0020C02C00209E4D020076
:10128000BB4D0200E04D020070B503790400092057
:10129000002B1DD0FDF796F803000520002B17D179
:1012A0002500FC35286B00280DD1A86B002810D133
:1012B000686B002813D120000C30FEF77FFB00285C
:1012C00006D1207104E003681B6A98470028ECD01F
:1012D00070BD03689B6A98470028E9D0F8E7036867
:1012E000DB6A98470028E6D0F2E770B50400E369AE
:1012F0002362206A002807D0C36821009847236A28
:10130000002BF4D01B69F3E7E069002804D00569DD
:1013100000F030FF2800F8E7E0616060A060E06066
:101320002061606170BD10B5FFF7DFFF03005A1E3A
:10133000934106205B42184010BD70B50400006860
:10134000002804D0056900F015FF2800F8E72060A8
:1013500070BD000010B50400024B08C0FFF7EDFFA0
:10136000200010BDA44C020010B50400FFF7F2FFEE
:10137000200000F0FFFE200010BD70B504000068E2
:10138000002804D0056900F0F5FE2800F8E7206089
:1013900070BD000010B50400024B08C0FFF7EDFF60
:1013A000200010BDB44C020010B50400FFF7F2FF9E
:1013B000200000F0DFFE200010BD0000064B70B5DD
:1013C000040003604068002804D0056900F0D2FEE4
:1013D0002800F8E7200070BD844C020010B504001E
:1013E000FFF7ECFF200000F0C5FE200010BD00005C
:1013F000064B70B5040003604068002804D00569FE
:1014000000F0B8FE2800F8E7200070BD944C020000
:1014100010B50400FFF7ECFF200000F0ABFE200049
:1014200010BD0000064B70B5040003604068002842
:1014300004D0056900F09EFE2800F8E7200070BD8A
:10144000C44C020010B50400FFF7ECFF200000F0D0
:1014500091FE200010BD0000064B70B50400036033
:101460004068002804D0056900F084FE2800F8E7F1
:10147000200070BD1C4D020010B50400FFF7ECFF0A
:10148000200000F077FE200010BD0000064B70B574
:10149000040003604068002804D0056900F06AFE7B
:1014A0002800F8E7200070BDB84B020010B504001A
:1014B000FFF7ECFF200000F05DFE200010BD0000F3
:1014C000064B70B5040003604068002804D005692D
:1014D00000F050FE2800F8E7200070BDC84B020065
:1014E00010B50400FFF7ECFF200000F043FE2000E1
:1014F00010BD0000064B70B5040003604068002872
:1015000004D0056900F036FE2800F8E7200070BD21
:10151000D84B020010B50400FFF7ECFF200000F0EC
:1015200029FE200010BD0000064B70B504000360CA
:101530004068002804D0056900F01CFE2800F8E788
:10154000200070BDE84B020010B50400FFF7ECFF6F
:10155000200000F00FFE200010BD0000064B70B50B
:10156000040003604068002804D0056900F002FE12
:101570002800F8E7200070BD2C4D020010B50400D3
:10158000FFF7ECFF200000F0F5FD200010BDF7B5DF
:10159000037907000E001400002B11D0082200214F
:1015A000684601F086FC0A256B461D713000FAF78B
:1015B00035FEE36800906946200098472800FEBD8C
:1015C000FDF748F805000C20002DF8D10123082272
:1015D0003B712900684601F06CFCE7E7FC3070B510
:1015E000846B0500002C0DD1242000F0B7FD064BC4
:1015F00044608361054B8460C46004614461C461DC
:101600000360A863A86B70BD844C0200584D0200B3
:10161000124B10B508330360114B0400C3608023E4
:10162000104A5B00C250C018FBF73EFA20000E4B78
:10163000B830E360FFF778FF2000AC30FFF75AFFC7
:101640002000A030FFF73CFF20006C30FFF71EFFAA
:101650002000FAF761FE200010BDC046E84D0200F0
:10166000AC4A0200C0510200F84B020010B5040061
:10167000FFF7CEFF200000F07DFD200010BD10B56B
:101680001F220021040001F014FC0023E37710BDA9
:1016900010B5FEF7A3FC10BD00487047882B002052
:1016A00000487047882B0020444AF0B50600C2600D
:1016B000A022434B16360833036001000023428208
:1016C0000400320085B00371836003748382353176
:1016D000137001329142FBD1802580222000AD00A1
:1016E000D201F37735841100009338300023FAF7E4
:1016F0001BFE23002100403303931A002B0000251A
:101700005F31157001328A42FBD1039AFC21D577F3
:10171000220060321380230062331D701379200091
:101720000B401371230068331D70264B2567E36659
:101730000C220021783001F0BCFB23002700883305
:101740001D60214B0837FB67843700210C223800CD
:1017500001F0AFFB1D4B1E4AFB602300A0333D612F
:101760001A601C4A5D60DA601B4A1D619A61DD6186
:101770003000FFF784FF0398FFF781FF174B601CD1
:10178000E3602300C4331D705D709D70FF3001F075
:10179000CFF823001933FF33DD608023104A5B004C
:1017A000E250230001222000FE3352425A85023BC0
:1017B0001D635D639D6305B0F0BDC046F84B02003C
:1017C000E84D0200B84B02000BF70100FDF60100E6
:1017D000C84B0200D84B0200E84B0200AC4A0200A2
:1017E000C051020070B500260400244B067103604E
:1017F000234B46718360234BC6604361224B866155
:101800000362224B4662C362066331003830FEF742
:1018100093FE200031004C30FEF78EFE2000310098
:101820006030FEF789FE1A4B2500236023007435D3
:10183000C43340C59D42FCD126006536FF362800E2
:1018400008220021083501F034FBB542F7D122000F
:1018500000238532FF3208C5AA42FCD1C2225200C1
:10186000A35423002200002187339732FF33FF3235
:10187000198002339A42FBD1200070BDD44C020083
:10188000944C0200A44C0200B44C0200C44C020070
:10189000844B0200FC30036B70B50400002B07D1B1
:1018A000CC20400000F05AFC0500FFF79BFF2563A9
:1018B000206B70BDFC30036B70B50400002B07D1AA
:1018C000CC20400000F04AFC0500FFF78BFF2563A9
:1018D000206B70BD03000A0070B570CA70C3CB687E
:1018E000C3600023036170BD10B58130FF30FFF786
:1018F000F1FF10BD70B50C220D000021040001F0B5
:10190000D8FA00232361024B25602000E36070BDFC
:10191000BFFD010030B587B00400FEF7B1FA050045
:101920000620002D24D123005C331D705D709D7056
:10193000DD70A8235B00E550E218523BFF3B53608B
:101940009360D3601361B4225200A5502200693223
:10195000FF3253609360D3601361290001A8FEF742
:10196000EBFD20008130FF3001A9FFF7B3FF280015
:1019700007B030BDF8B5002504002D4B0E00036004
:10198000857105830C2229001C3001F092FA294B45
:101990002000A36223003033E5621D70231DDD8724
:1019A00044302900FFF7A6FF234BA66523602300E0
:1019B000260027005C331D705D709D70DD70603601
:1019C000C03730000021FCF7ABFEB582F582183637
:1019D000BE42F6D125005135FF35242200213000CA
:1019E00001F067FA30002436FEF786FFB542F4D1E5
:1019F000A82300215B00E150B42223002000FC3327
:101A000052009965D9651966596681306C61A1509B
:101A1000196759679967D967A3185C61FF30FEF7AA
:101A20008BFD20009530FF30FEF766FF2000F8BDEB
:101A3000004D0200B1FD01003C4D0200FC3070B5CC
:101A4000466B0500002E1CD1B420800000F086FB00
:101A500004000D4B866043600C4B466103610C4BE8
:101A60000662C3610B4BC66283620B4B21000360AD
:101A70003430FFF77FFF2000ED30FF30FDF78CFBA7
:101A80006C63686B70BDC046B44C0200A44C02008D
:101A90001C4D02002C4D0200444B020010B5054CB9
:101AA0002000FFF701FE044A0449200000F00EFB6D
:101AB00010BDC046882B002000280020111602000F
:101AC00001704B1C0AD001238B404360044BC36060
