:020000021000EC
:10C00000004000204D220200892202008B22020003
:10C010000000000000000000000000000000000020
:10C020000000000000000000000000008D2202005F
:10C0300000000000000000008F2202009122020098
:10C040009322020093220200C921020093220200DF
:10C050009322020000000000411A02009322020015
:10C060009322020093220200951D020093220200F7
:10C0700093220200932202009322020093220200E4
:10C0800093220200E1250200932202009322020083
:10C09000932202002DCA0100B5E3010093220200A1
:10C0A0009322020093220200000000000000000022
:10C0B0000000000000000000000000000000000080
:10C0C00010B5064C2378002B07D1054B002B02D06E
:10C0D000044800E000BF0123237010BD9428002015
:10C0E0000000000098520200084B10B5002B03D04E
:10C0F0000749084800E000BF07480368002B00D14B
:10C1000010BD064B002BFBD09847F9E7000000005C
:10C110009828002098520200942800200000000077
:10C12000164B002B00D1144B9D46402292029A1AC6
:10C13000924600218B460F461348144A121A06F005
:10C140003CFE0F4B002B00D098470E4B002B00D02D
:10C1500098470020002104000D000D48002802D05F
:10C160000C4805F03CFF06F0CBFD2000290005F04F
:10C1700002FF05F031FFC04600000800004000202B
:10C1800000000000691F020094280020D42E002027
:10C19000DF1F020000000000704710B50368002B8D
:10C1A00001D00800984710BD02000B00F0B51268DE
:10C1B00089B0019203AA15001E00406801688968D1
:10C1C0008C4692CE92C5DB680199D360002313613F
:10C1D000E04709B0F0BD000070B504000025216003
:10C1E0000E0045600C220830290006F0E6FD094BE0
:10C1F000A5616361AE420AD1074D2B68002B02D1C5
:10C2000005F0CAF9286023689B00EB5863602000A2
:10C2100070BDC0469BC10100D028002070B5002829
:10C220000DD1114C2668002E07D11C3005F01AFFE5
:10C2300005003100FFF7D0FF2560206812E00126DD
:10C240000A4D0B4C2B6833420BD1280005F0D4FE6D
:10C25000002806D031002000FFF7BEFF280005F0BF
:10C26000E7FE200070BDC046B0280020D428002082
:10C27000B4280020436810B50400002B02D1044804
:10C2800006F038FC60680368DB68984710BDC0465C
:10C2900006470200436810B50400002B02D1044891
:10C2A00006F028FC606803689B69984710BDC0468B
:10C2B00006470200436810B50400002B02D1044871
:10C2C00006F018FC606803681B6A984710BDC046FA
:10C2D00006470200436810B50400002B02D1044851
:10C2E00006F008FC606803685B6B984710BDC046A9
:10C2F00006470200030007B59A680830002A06D0F6
:10C30000034A002A03D0019301A95B69984707BD3E
:10C3100099C10100704710B50800FFF77FFFFFF7D4
:10C32000E9FF10BDF7B5FA26B6007143009308ABDC
:10C330001B780400080015491700019307F0DEFD83
:10C3400085B2300025807843104907F0D7FD6B4651
:10C350001B8880B2A3806B461B796080A371032D7C
:10C3600001D80423238080232288DB019A4200D94C
:10C370002380032801D80422628062889A4202D96D
:10C380008023DB0163802000FEBDC04671020000F7
:10C3900010B50368002B01D00800984710BD10B5F8
:10C3A0000368002B01D00800984710BD10B5036842
:10C3B000984710BD002801D00B6803607047704794
:10C3C00010B50368002B01D00800984710BD10B5C8
:10C3D0000368002B01D00800984710BD10B5036812
:10C3E000002B01D00800984710BD000010B511487F
:10C3F00006F098FD0023104CE356013304D12422AB
:10C400000E490F4806F00EFBE36862680D481A609B
:10C4100006F086FB0023E356013304D124220749AA
:10C42000074806F0FFFA2369626807481A6006F0B9
:10C4300079FD10BD694702004C29002079470200B0
:10C44000C04702000000A040D84702001FB504000A
:10C45000114806F067FD114B6288DB8B9A421AD1B6
:10C46000E2680F49684606F0BBFD69460D4806F0D4
:10C4700025FE0D4C002808D10C4806F053FD200085
:10C4800006F050FDFFF7B2FF05E0094806F04AFD4F
:10C49000200006F047FD1FBDE8470200D828002015
:10C4A000F9470200384702003A480200FC47020000
:10C4B00010480200F7B501920400C07F1E00C318A7
:10C4C0000F0001251D2B1ADC71192A00201806F017
:10C4D00074FCE07F2A004019C0B2E07739002018D0
:10C4E00006F06BFCE07F320040190025C0B2E07717
:10C4F0000199201806F058FCE37FF618E67728002B
:10C50000FEBD0000F7B5040000250192C77FAF42D1
:10C5100055D966197078884202D1002E05D14EE0B7
:10C52000605D01302D18EDB2F1E7152921D8012207
:10C530008A40264802421CD0D91901201F2944DC18
:10C54000E1193718B94210D80021C8B2834205D981
:10C55000019A7018575C01318770F6E7625D9A188E
:10C560006255E27F9B18E3772EE00878C8540139C2
:10C57000E8E7655D013DEDB2AB4209D10021C8B2EB
:10C58000834221D9019A7018545C01318470F6E716
:10C590007F1BFF1801201F2F17DCA81C3618022054
:10C5A0004042401BE77FE219964203D23778375466
:10C5B0000136F7E702204042451B7D19E577019AD5
:10C5C0002000FFF777FF00E00020FEBDFC00200008
:10C5D000036810B5011DDB6F04009847002804D1E3
:10C5E0000122583423781343237010BD10B5002066
:10C5F000FFF714FEFFF74EFEFFF7EAFF014806F0D3
:10C6000091FC10BD2648020070B506008AB00A36BB
:10C610000C0022223100050001A806F0C5FB6B4684
:10C62000DA1C012301A819001470FFF76BFF041E28
:10C630000DD12A002B6834329B6F01A9280098473E
:10C64000041E04D1222201A9300006F0ADFB200017
:10C650000AB070BDF0B505000E0017008DB00A35A8
:10C6600022222900040003A8019306F09DFB31005B
:10C67000019B3A0003A8FFF745FF061E0DD12200DB
:10C68000236834329B6F03A920009847061E04D10B
:10C69000222203A9280006F087FB30000DB0F0BD70
:10C6A000F0B5037989B00093002B75D1056803AC10
:10C6B0002800FFF7EFFD0C2200990190200006F002
:10C6C0007CFB142005F0CEFC344B220003930300C6
:10C6D000C2CAC2C3324B019EC360009BA436036131
:10C6E0003368002B00D0036130602800FFF7E2FDC3
:10C6F0000C2200210600200006F05FFB142005F04C
:10C70000B1FC284B0393030086CC86C3264BC36041
:10C7100000230361B369002B00D00361B0612800DE
:10C72000FFF7B8FD0621FFF76FFF2800FFF7B2FD06
:10C73000002303712800FFF7ADFD07231B4A0921E1
:10C74000FFF788FF2800FFF7A5FD1023184A0321F3
:10C75000FFF780FF2800FFF79DFD036804009B683A
:10C76000984703003220834203D9236820009B6846
:10C770009847FA239B0058430E4907F0BFFBE0801F
:10C780002800FFF797FD03680B491B6898472800AE
:10C79000FFF780FDFFF71CFF09B0F0BDEDC50100FC
:10C7A000DDC301004DC40100CFC301004D490200AB
:10C7B00054490200710200002C290020F0B53C48C9
:10C7C00099B006F0AFFB0020FFF728FD0EAE002168
:10C7D00005000C22300006F0F0FA364B13AC0E9335
:10C7E000230007CE07C3344B2100E3600023280059
:10C7F0002361FFF7D9FC2800FFF73CFD0028FAD0A1
:10C800002E4B210013932E4B2E48E36005F056FF6C
:10C81000E368002B02D09B68200098472A4806F066
:10C8200081FB2A492A4806F07DFB8D2394240026AB
:10C830001E270A9364330993A93B0893173B079378
:10C8400089330593453B0493293B03930E3B0293A5
:10C85000123301933D22330071210C970B940694FF
:10C8600000961C4806F05EFB8D230A9364330993FF
:10C87000A93B0893173B079389330593453B0493E2
:10C88000293B03930E3B0293123301934D3B0093DC
:10C890000C970B94069433003D2271210E4806F04C
:10C8A00041FB0E4806F03EFB2800FFF713FDFBE7B7
:10C8B0003D480200A1C60100C1C30100EDC3010053
:10C8C0002C47020064290020684802004D490200FC
:10C8D00093480200A5480200FA4802006948020095
:10C8E000F0B5424C87B018220021200006F065FA0E
:10C8F00000222000122105F0FDFF3D4C10212000F8
:10C9000005F0AEFE200000243A4A3B4905F062FBE8
:10C91000220001AE331901345A70102CFAD10123D0
:10C9200036493370331B013C0A5D5A74002CF9D12F
:10C93000B37B727B324D1B02134373826B826B4657
:10C9400032786F1C591D2A703800102206F02CFA1C
:10C950002C4B08226B611423FA772B836B83AA1C60
:10C96000133BD3772B772B0028331C702B002933F4
:10C970001C702B0028002A331C700C222100EC8331
:10C980006C622C3006F019FA28001F4B0C22AB63A6
:10C99000EC634030210006F010FA22001B4B2C659E
:10C9A000EB64331901345A70102CFAD10123184961
:10C9B0003370331B013C0A5D5A74002CF9D1B37BF0
:10C9C000727B144D1B02134373826B826B46327869
:10C9D000591D2A70681C102206F0E6F901232B75F8
:10C9E0000D4BAC83AB6107B0F0BDC0464C290020B5
:10C9F0006429002000280020012602005947020077
:10CA0000D8280020A42900209FC3010091C3010061
:10CA1000494702002C290020042800202EDF7047FF
:10CA200032DF704733DF70474CDF70470120054A23
:10CA300010B513785840044B10701B68002B00D0C1
:10CA4000984710BDBC290020B82900200C4B70B5B8
:10CA5000050015200C001A60FFF7E2FF00280ED138
:10CA600029001530FFF7DEFF002808D11530FFF749
:10CA7000D5FF002803D121000330FFF7D5FF70BD9B
:10CA8000B8290020C36810B50400002B01D09B68B2
:10CA90009847200010BD000010B50400064B03604D
:10CAA00005F087FE20001830FFF7ECFF200005F0AE
:10CAB000E7FE200010BDC046B850020010B50400CB
:10CAC000FFF7EAFF200005F0D9FA200010BD0000B2
:10CAD00010B5074C200005F0AFFE064B064A236058
:10CAE000002306496362200005F074FA10BDC046B9
:10CAF000C0290020B85002000028002099CA010077
:10CB00007FDF704782DF7047A7DF7047A9DF70477C
:10CB1000AADF704700207047002070470020704750
:10CB2000F0B585B004000E0002AA8178214801F01A
:10CB300061FA00283CD10C2361781F4A4B43D3187B
:10CB40009B7A01921D4F5B0605D4022E03D01C4F29
:10CB5000012E00D01B4F1C25A1781B4B69432A00D6
:10CB6000591802A80023B847002813D1022E1FD05D
:10CB70000C234021627802A85343019AD3189A7A71
:10CB80008A439A726178114B69432A0059182B0025
:10CB9000B84701E0022E0BD00C232278210053432A
:10CBA0000B4A02A8D3189B7A0A4A9B009B589847C5
:10CBB00005B0F0BD742A0020EC290020BDE0010082
:10CBC00041E0010015CB0100F8290020302A0020A7
:10CBD000642A002074490200F7B5182201904378B6
:10CBE00026485A4381184C68254F002C0FD00C2141
:10CBF00059437918897A4DB2002D07DA490605D4D0
:10CC000015000835A6B24519145802E00024260084
:10CC100025000C225343FB181889320023002900F9
:10CC2000FFF774FF0B2816D10C22019B29005B78BB
:10CC30005343FB18188932000123FFF767FF0C21CB
:10CC4000019B104A5B784B43FF183889FFF75CFF64
:10CC5000002806D111E0002800D00B48012C0CD18F
:10CC6000EDE70222094BC318934305D0082803D0EF
:10CC7000112801D0002000E00348FEBD4C2A00200E
:10CC8000EC290020FFFF000041800000FECFFFFFE5
:10CC900010B5FFF7A1FF10BDF0B589B002AB9D1D27
:10CCA0000E230C22019000912B804B7804A9534352
:10CCB000224AD31818892A000323FFF729FF0028E6
:10CCC00038D11826009B1E4F58782A8870430830A8
:10CCD000381804A906F059F8009B3C005B7800283E
:10CCE0000DD10C225A4315498A18917A022211401B
:10CCF00020D173433200F81806F05FF81AE05E4363
:10CD0000BE1972680F4F002A00D10F4F1826032258
:10CD10007343E2502A88E11808334A60E01804A9F6
:10CD200006F042F8009B320059780198714338238D
:10CD30006118B847002009B0F0BDC046EC290020BA
:10CD40004C2A0020BDE0010041E0010010B5FFF7D2
:10CD5000A3FF10BDF8B5070048781824030063430B
:10CD6000084D0E00E81822003823390001F0E4F9DC
:10CD7000002806D173785C432C196368013300D115
:10CD80006060F8BD4C2A002010B5FFF7E3FF10BD2E
:10CD90000020704700207047002070470020704737
:10CDA00070B51C2444430D4E050030190622341979
:10CDB0000021113006F001F810220021200005F0BA
:10CDC000FCFFFF232374A376013BFF3B2383023345
:10CDD000AB40034A11689943116070BDF8290020E7
:10CDE000702A002037B581B205006A46074801F075
:10CDF00001F9041E08D15421684601F0E9F9041E26
:10CE000002D12800FFF7CCFF20003EBD742A00208D
:10CE1000F0B51D00434B93B01B6801900F00160046
:10CE2000002B7CD0189B542B79D8FF22002403AB15
:10CE30005A709A70DA701C7002AB1C74189B0B95B8
:10CE40000A93A1B204AA384801F0D4F8002809D105
:10CE5000082204A9019805F098FF002802D103AB2D
:10CE60009C7002E00134022CEBD103ACA178FF29C5
:10CE700055D0032F0AD1189A06AB542A01D1343A5F
:10CE800000E040221A701A7803213AE0274BEB1A8F
:10CE9000372B10D8264B002E04D101228A40186867
:10CEA00010423CD001228A40196891432022196027
:10CEB00006AB1A7020E01F4BEB1A1B2B09D820225F
:10CEC00006AB1A70002363700CAB0B9318230A9304
:10CED00012E019482D1A172D21D8302302AA1374F5
:10CEE000002363700133E370144B997A02231940D5
:10CEF00002D1182205F061FF06AB022F0CD10121EF
:10CF00001A780A431A7009AB0793064B32001B6864
:10CF100006A92000984702E01A780221F1E713B031
:10CF2000F0BDC046642A0020742A0020F8290020A1
:10CF3000702A0020302A00204C2A0020EC290020F2
:10CF4000F0B5050085B0002858D00127002601243F
:10CF50002C4B2D487F421E605E729E72310007810D
:10CF6000C7720722847205F028FF31001822274873
:10CF700005F023FF3000FFF713FFFF23244E2000AE
:10CF80003370FFF70DFF54236A4677709380214F6B
:10CF9000523BD380204B39006846009300F0CAFF13
:10CFA00000282CD11D4B1C702C781D00002C1BD18F
:10CFB0001C27A1B202AA174801F01CF8061E0CD1CA
:10CFC0003B00634316481C22C01802A9330001F03D
:10CFD000B3F8002804D02E7011E000232B700EE06F
:10CFE0000134022C0BD0E4E76B466A469B88D1885B
:10CFF0003800594389B201F0EBF800E0094805B068
:10D00000F0BDC046642A0020EC2900204C2A0020F4
:10D01000E8290020742A002011CE0100EA2900200E
:10D02000F82900200E800000F8B5174B06001B7889
:10D030000F00002B22D0002822D0002920D00B681E
:10D04000002B1DD0114D2C68002C1BD12800053160
:10D0500008C0052205F0A8FE3B790220AB7201232F
:10D0600004212A7A9A4302438A432A72EA791343B3
:10D0700003438B43EB712000347004E0044802E06A
:10D08000044800E00448F8BDEA290020642A002092
:10D09000088000000E80000004800000154B1B7803
:10D0A000002B22D000281ED000291CD00378002B92
:10D0B0001BD1114B1B68002B17D04278002A16D1C8
:10D0C0000E4B9B7A012B12D02420184003D0012351
:10D0D00010000B700CE05BB2002B02DA02230B7025
:10D0E00006E0087004E0064802E0064800E0064852
:10D0F0007047C046EA290020642A0020EC2900205D
:10D100000E8000000880000010800000254BF0B564
:10D110001B78002B26D0002822D0002920D00B68B5
:10D12000002B1DD08B68002B1AD00378002B19D14F
:10D130001D4A1268002A15D018001C001B4A103224
:10D140001B4DEF7ABB420FD1AF7A02252F420BD095
:10D1500001331C32022BF3D108730C71002020E044
:10D1600014481EE014481CE00F7B87420DD90125AE
:10D17000977A2F4209D1113DAC46944466468D689A
:10D1800087007E510D4D2B5401300F79A742DFD916
:10D190000225977A2F42DBD10D68A7007A5101341E
:10D1A000D6E7F0BDEA290020642A0020F8290020F3
:10D1B000EC2900200E80000008800000E8290020F3
:10D1C000104B10B51B78002B1AD0002816D0007811
:10D1D000002815D10C4B1B68002B11D00B4B9A7EED
:10D1E0001C00FF2A01D0FFF7FDFD230036331B781A
:10D1F000FF2B06D00120FFF7F5FD02E0044800E018
:10D20000044810BDEA290020642A0020F8290020E3
:10D210000E8000000880000013B5040081786A4683
:10D220000B4800F0E7FE002810D11C226078094B63
:10D23000504369461818130000F07EFF064B074A5A
:10D240009B7A21009B009B586846984713BDC046B7
:10D25000742A0020302A0020642A00208449020019
:10D26000FF23F0B5BD4A8FB0127806000393002A61
:10D2700000D1AFE1BA4A11680192002900D1A9E1B9
:10D2800004AD05AF6B70AB70EB70031D7B602A23A0
:10D290003B81002302882B70B24C102A0AD0A37A5B
:10D2A000990769D58188B048814208D02089884291
:10D2B00062D104E00121A27A0A4205D18AE1E17A31
:10D2C000A9700021697057E011226B703A70838851
:10D2D000871D238102232000A37201240A3A39000A
:10D2E00005F062FD737D1C4006D0A04A5B08D35C4C
:10D2F000FF2B34D0039332E09D4E1036002F05D122
:10D300003289994B9A4208D1039428E007223900C8
:10D31000300005F03AFD0028F6D001341C36022C0E
:10D3200003D0EBE7F07920423ED10022019B05AC0F
:10D330001B682100280098472378122B00D049E170
:10D340008848837A012B00D144E101238372023B98
:10D350000381C3720722002105F02FFD3AE1082066
:10D36000804A039B917ADBB20143D3729172280009
:10D37000AB70FFF751FFD8E7172A46D1019A042472
:10D38000517A01221427019891434172754805A9E9
:10D39000A3430F708372B7790100002FC2D0C07A07
:10D3A000FFF720FDB279C1E7AF78FF2FBDD008208D
:10D3B00003438B72F37A9B0706D5143078436C4B8A
:10D3C0001818837E93438376CB7AFF2BADD01C2233
:10D3D0000B78674C7A43022B0AD0A418200007224E
:10D3E000103005F0E1FC0222A37E9343A37607E010
:10D3F0000121A3185F4A528A1A839A7E8A439A7639
:10D4000001212800FFF78CFB8FE7172A00D996E04F
:10D41000132A54D13A7004221343A372E37AFF2BE8
:10D4200025D1534B9B7EFF2B06D0514B0127363322
:10D430001B78FF2B29D100E000271C20237878439C
:10D44000022B09D04A4B07221818FD2321008376AE
:10D45000103005F0A9FC03E0454B1818FE23837635
:10D4600003AB1F70039BDBB2AB70E3720BE01623C0
:10D4700041480E22002108303B7005F09EFC4022FE
:10D48000A37A1343A372002400E03C4C0021354BE7
:10D490000B91DA7A1C235343354A0D91D3180C9320
:10D4A000344B09910893019B0A911A1DB08808AB6F
:10D4B000FFF726FB002800D08CE0220036E7142A74
:10D4C00022D1E27A2A4FFF2A13D1F289398B914275
:10D4D00004D0B98E91420CD1012200E00022082133
:10D4E00003920B43D2B2E272A3722800AA70FFF734
:10D4F00093FEE37A1F49FF2B00D10021B08800235F
:10D500003A00FFF7FFFA65E0112A63D10222190001
:10D510009143A1721B0707D54AB2002A0BDA0021FA
:10D520002800FFF7FDFA06E0A878FF2803D0FFF7F0
:10D5300037FCFF23AB701023A372023302E01C2AD6
:10D5400002D113233B70F0E6522A1BD1019B0C4AF7
:10D550009B7A28009B009B5898473BE0EA290020D3
:10D56000642A0020EC290020FFFF0000E8290020A9
:10D57000F8290020302A00204C2A00204380000097
:10D5800064490200182A25D1B279112A14D11A0748
:10D5900012D511480E220021083005F00EFC16238A
:10D5A00060223B70A37A1343A372019B5E3A5B7ABD
:10D5B0001343019A5372B8E6802252421343A37276
:10D5C00015233B70019B054A9B7A28009B009B58C2
:10D5D0009847AAE60FB0F0BD4C2A0020644902002B
:10D5E00030B5002912D00A78002A11D10A4B1B68E5
:10D5F000002B0DD0FF23094C8B702589FA3B854207
:10D6000007D14A70E37A8B70130002E0044B00E00C
:10D61000044B180030BDC046642A0020EC290020CD
:10D620000E800000088000004DDF704730B50023F9
:10D630000D0014008DB06946C21AD27B5A540133D2
:10D64000102BF8D100210D2204A805F0B6FB6A4684
:10D650002B786846D3776B789377AB785377FFF75F
:10D66000E3FF2F236B441B7823702E236B441B781E
:10D6700063702D236B441B78A3700DB030BD30B5A3
:10D680000378040085B00D000020022B16D1611C28
:10D69000032201A805F088FB211D032203A805F041
:10D6A00083FB02AA03A92800FFF7C0FF032202A9F7
:10D6B00001A805F06AFB43425841C0B205B030BD35
:10D6C00010B5064B586980235B05421C04D01969CC
:10D6D00089B206F013FC00E0586910BD001000107C
:10D6E00029DF704728DF7047034B10B51B78034ACA
:10D6F0009B009B58984710BD982A0020944902002F
:10D700000B0037B50C24020018009D6809786C43A3
:10D71000044D08302D680095034D1B696459A047DE
:10D7200037BDC046A02A0020842A0020802252054E
:10D730001169142210B50E4889B203785343C318F7
:10D740001A69501EDA881B898018C01806F0D6FBAB
:10D75000084B02001B6801209A4207D800209A4219
:10D7600004D1054B1B6858425841C0B210BDC04699
:10D77000AC2A00207C2A0020802A0020082310B533
:10D78000034A116899431160FFF7AEFF10BDC04610
:10D79000942A0020094A10B5136819070AD499077A
:10D7A00002D501210B4313600222054B1A70FFF7CB
:10D7B0009BFF01E0FFF7E2FF10BDC046942A002066
:10D7C000982A0020064B10B51B681B0705D40122C0
:10D7D000044B1A70FFF788FF01E0FFF7CFFF10BD81
:10D7E000942A0020982A002010B5002814D011286F
:10D7F00005D10823094A11680B4313600CE0142378
:10D80000074A1178594351180431FFF779FF042270
:10D81000044B1A7000F098F810BDC046942A0020FE
:10D82000AC2A0020992A002010B5FFF759FFFFF716
:10D83000DBFF10BDF8B514238025124A6D0514785E
:10D84000114E5C432B691419E2889BB22789206929
:10D850009A420ED92B6961699BB2D31A2A6938188A
:10D8600092B2C918C0189208FFF7DEFF2B699BB26D
:10D8700005E0920838186169FFF7D6FFE388336046
:10D88000F8BDC046AC2A0020D82A002070B58025FB
:10D89000094B6D052A691C68631E94B25C43FFF74F
:10D8A0000FFF2B69411E9BB25943044B20001A689D
:10D8B000FFF7BAFF70BDC0467C2A0020A82A0020CE
:10D8C000142270B580260E4976050B785343CB1889
:10D8D0001A89DC881B69A4183169E418200089B210
:10D8E00006F092FB0D00FFF7EBFE3369411E9BB281
:10D8F0005943044B49191A682000FFF795FF70BD82
:10D90000AC2A0020802A002010B5FFF7D9FE802223
:10D91000074C520513691169126924689BB292B2CF
:10D9200089B20138920861435843FFF77DFF10BD6B
:10D930007C2A002010B5034B1868FFF7D3FEFFF7D1
:10D9400053FF10BD7C2A0020F0B52B4B85B0187812
:10D9500003284ED806F0C8FA020E114B0023274ABE
:10D960001360274A1360274B5B78002B41D000F0EF
:10D97000F9F83EE0FFF75EFF3BE0234C8027236889
:10D980007F0501930123019A9A4314232260029296
:10D990001C4A3969157889B25D4355192B691800FD
:10D9A000039306F0ABFA194B039A18603969EB88B8
:10D9B0000600501E181889B206F0A0FA864203D15C
:10D9C0000223029A134303E00323019A9A431300AC
:10D9D00023600F4B1A680F4B002A03D121680232D3
:10D9E000114200D000221A70FFF77EFE01E0FFF71F
:10D9F000A1FF05B0F0BDC046992A0020A42A00204E
:10DA0000D82A0020AC2A0020942A00207C2A00205A
:10DA1000A82A0020982A00201422F0B580254B491E
:10DA20004B480B7885B05343CB18DF68083A7A43EC
:10DA3000821814895089526860436D0582182969DB
:10DA40001C890192DA881E6913199B19009300231F
:10DA50000292404A89B21360300006F0D5FA3D4B7D
:10DA60002A00039300290BD12B6902999BB299429A
:10DA700008D0019B00998B424FD1002C59D101E075
:10DA8000022F08D11169300089B206F037FA324B03
:10DA9000186003233BE02969301989B206F0B4FA13
:10DAA0002E4B89081960009A019B296993422DD059
:10DAB00089B2009806F0A8FA002927D080246B4686
:10DAC00064052169988889B21F8806F017FA2669CB
:10DAD0000500B1B2380006F011FAADB280B285424D
:10DAE00008D16B466A469B8812889B1A039A9B084A
:10DAF00013600BE023692169380089B29CB206F0FB
:10DB000083FA89B2641A039BA4081C600223144A96
:10DB10001370FFF719FF05B0F0BD022FB2D02969CD
:10DB2000301989B206F070FA0C4B8908196029691E
:10DB3000BEE7022FA6D02969301989B206F064FA2F
:10DB4000064B890819602B69E0E7C046AC2A002023
:10DB5000842A0020802A00207C2A0020A82A002075
:10DB6000992A0020142210B50A490B785343CB1888
:10DB7000D988094A1B791160032B08D0042B06D0E1
:10DB8000012B06D1054A1370FFF7DEFE01E0FFF717
:10DB900043FF10BDAC2A0020A02A0020992A0020B3
:10DBA000F7B5124D01936E7808AC27880424022E35
:10DBB0001AD02C78A419012C00DD023C14235C43FC
:10DBC0002C196261220020710C3209C909C26B460E
:10DBD0009B882781E3800024054B01361B786E70FB
:10DBE000A34201D1FFF7BEFF2000FEBDAC2A0020FA
:10DBF000992A002070B51424114D00202978614322
:10DC000069180431FFF77CFD2300002201202978E8
:10DC10004B43EB181A71DA80D8601A615A611A8185
:10DC20006B780918013B6B70CBB2022B01D02B70C3
:10DC300000E02A70034B1A70FFF786FE70BDC046E5
:10DC4000AC2A0020992A0020142210B507490B782D
:10DC50005343CB181B79042B02D0FFF7CBFF04E012
:10DC60000122034B1A70FFF76FFE10BDAC2A002093
:10DC7000992A0020F8B508241D4F3D682C4022D178
:10DC800080235B0519691B4B1E68002E1ED01422D1
:10DC9000194889B203785343C3181A69501EDA88A9
:10DCA0001B898018C01806F029F9144B1B6898428C
:10DCB0000CD1134B1C6001231D43124B3D601C70A3
:10DCC000FFF712FD13E0FFF759FD10E0FFF72EFDFF
:10DCD000002804D000220A4B1A60023202E0002E13
:10DCE00003D00322074B1A70EAE7FFF7ADFFF8BD38
:10DCF000942A0020802A0020AC2A00207C2A0020C0
:10DD0000A82A0020982A0020054B10B51B681B0785
:10DD100002D4FFF799FF01E0FFF730FD10BDC046C8
:10DD2000942A002070B5154D2C68230723D4144A7B
:10DD3000136801331360134B04221B68002B04D1BA
:10DD4000FFF7F4FC002802D002220F4B0CE00F4B2F
:10DD50001B68002B0CD0012122000B4B0A4002D182
:10DD60000C432C6000E003221A70FFF7BDFC04E0B6
:10DD7000FFF76AFF01E0FFF701FD70BD942A002064
:10DD80007C2A0020A82A0020982A0020802A00202F
:10DD90001E4B10B51B78022B30D0032B19D0012B52
:10DDA00032D108211A4A13680B4222D1142319498F
:10DDB0000A785A43184B8A181968D3885B1A9BB2A1
:10DDC000D380002B02D1FFF715FF1DE0FFF732FDD6
:10DDD0001AE008210E4A13680B420AD10F4A136851
:10DDE00001331360FFF7A2FC002804D1FFF72CFFDA
:10DDF0000AE08B431360FFF7A7FD05E0084B094AD3
:10DE00001B789B009B58984710BDC046992A00205C
:10DE1000942A0020AC2A0020D82A00207C2A002046
:10DE2000982A0020A849020010B5FFF749FC80227B
:10DE30005205136911699BB20138584389B206F043
:10DE40005DF8FFF74FFCFFF7CFFC10BD70B5144C29
:10DE5000042522781300AB4321D002281DD00328CB
:10DE60001DD1104B1B681B0717D40F490B680133DA
:10DE70000B60032B04D0022A0CD1FFF735FC0EE017
:10DE800014230A4A0D201178594351180431FFF721
:10DE900037FC2570FFF758FD01E0FFF779FF70BDF3
:10DEA000992A0020942A0020A42A0020AC2A0020CD
:10DEB00010B501220024164B1C705C701C71DC80B4
:10DEC000DA601C615C611C811C765C831A625C6296
:10DED0009C629C830F4B1C80FFF7F2FB8023042283
:10DEE0005B051B6902389BB258430B4B18600B4B08
:10DEF00020001C600A4B1C601C815C81094B1C705B
:10DF0000094B1C60094B1C60094B1A6010BDC046D0
:10DF1000AC2A0020902A00209C2A00207C2A002085
:10DF2000842A0020992A0020A42A0020D82A002030
:10DF3000942A0020F7B504222A4B04001B680E0027
:10DF4000082013424DD00630002C4AD0002948D07A
:10DF50002368002B45D080277F053A69A38892B2B9
:10DF6000934201D907203CE00F2BFBD9E288002A1D
:10DF7000F8D01D4953430D685B190093FFF7A0FBD0
:10DF80003B6901389BB25843174B0193009B834276
:10DF9000E8D8A1888B07E5D1144B04201F88012FF6
:10DFA0001FD00C227A43124B376075602668981890
:10DFB00045600181D650E3880137438180204B437F
:10DFC000400502690469180091B2013806F020F892
:10DFD000A4B2013044430020019B65191D60034B2E
:10DFE0001F80FEBD942A00209C2A0020902A002039
:10DFF000842A0020104B30B51C680823640719D50B
:10E000000633002816D0002A14D00368002B10D144
:10E010000A4D2C68002C0CD02C89406861430918EB
:10E020006889444368682418A14202D21360516091
:10E0300000E00723180030BD942A0020842A002025
:10E04000F0B504001B4885B0056808206D072ED583
:10E05000063000292BD0002C29D025680738002D48
:10E0600025D1154D2E68002E21D0666803962E8985
:10E070006F896D687743BC46039F6544AF4216D2F3
:10E08000002A14D0964212D3D518AE420FDB0325D6
:10E09000093029420BD12E002B4208D1374206D13C
:10E0A00000930F3813000A002100FFF779FD05B037
:10E0B000F0BDC046942A0020842A0020F0B5040058
:10E0C0001B4885B0056808206D072ED5063000294D
:10E0D0002BD0002C29D025680738002D25D1154DCF
:10E0E0002E68002E21D0666803962E896F896D6890
:10E0F0007743BC46039F6544AF4216D2002A14D032
:10E10000964212D3D518AE420FDB032509302942BF
:10E110000BD12E002B4208D1374206D100930C3888
:10E1200013000A002100FFF73BFD05B0F0BDC0461B
:10E13000942A0020842A0020F0B51700224A85B0D6
:10E14000126802900E009C460824530739D5063405
:10E15000002936D0002834D00C68002C2ED11B4D5D
:10E160002A68002A2AD04A68688929896B68484346
:10E17000C018824222D2002F20D0B9421ED363465B
:10E18000F81881421ADB0321029B0B4218D1634627
:10E190000B4215D11140039112D162441100029833
:10E1A0003A0004F001FE0C23326800975343022129
:10E1B000ED58039A029B3000A84702E0072400E0D4
:10E1C0001024200005B0F0BD942A0020842A0020ED
:10E1D000F0B51F4B85B01B6805000E0008245B07D7
:10E1E00033D50634002830D00368073C002B2CD1EF
:10E1F000184B1A68002A28D01A8947680292586872
:10E200005B8953431B1803939F421ED20934BB07FB
:10E210001BD1381A110005F0F7FE093C002914D172
:10E220000299300005F0F0FE89B200290DD1002ED0
:10E230000BD0039AF3199A4207D3002233000092BD
:10E2400029000320FFF7ACFC0400200005B0F0BD5E
:10E25000942A0020842A00202EDF704751DF704767
:10E2600010DF704711DF704761DF704710B508009D
:10E27000110000F017FA10BDF0B5274B85B01B78E0
:10E28000002B47D0254D264E2B6834685A42534107
:10E29000DBB2009363425C41E4B2009B002B37D1B8
:10E2A00003A8FFF7DBFF05280AD0002804D00022CE
:10E2B000110000F0F9F905E003982B68984701E098
:10E2C00001230093002C1FD1164B03A91B880124A6
:10E2D0000B80154B1B6818000193FFF7C5FF070063
:10E2E00005280BD0002805D00022110000F0DCF931
:10E2F000002403E00198336898473C00009B002B02
:10E30000CED0002CC9D005E0009B002BC8D001E086
:10E31000002CD9D005B0F0BDDC2A0020E42A002072
:10E32000E82A0020DE2A0020E02A002070B5040040
:10E330000720002913D08D0711D109480160094930
:10E3400020000A80084A09491360FFF789FF002866
:10E3500005D10122064B16301A70FFF77DFF70BD04
:10E36000E02A0020DE2A0020EC2A00206DE20100D5
:10E37000DC2A002010B5FFF775FF03005A1E9341F9
:10E38000014ADBB2137010BDDC2A00200E230028E6
:10E3900002D0024B1860002318007047E82A0020C2
:10E3A0000E23002802D0024B18600023180070478B
:10E3B000E42A0020074B10B51B68002B07D09847B4
:10E3C000002806D00022110000F06EF901E0FFF7EE
:10E3D00053FF10BDEC2A002070DF704771DF7047DB
:10E3E00060DF704710B5FFF731FD10BD074B10B56A
:10E3F0001C78002C07D1012220001A7003F0D0F8FD
:10E400002100FDF788FF002010BDC046F02A002043
:10E41000F0B505008BB0FEF723FF280000F016FAD8
:10E42000002003F0BDF8036806009B699847336835
:10E4300004001B6A3000984733680090DB6A3000A4
:10E4400098470300288810380B2800D9CEE005F043
:10E450004BFD064FCDCDCD88CDCDCD8FCDACAE888B
:10E46000200031002F7D01F084FA220001216B7B16
:10E47000583201931378A8798B4349180B431370D2
:10E48000023A137869460133137004ABD8701E80CA
:10E490009F70002304AA137153719371D371137287
:10E4A0005372D372137353739373D37313742B0018
:10E4B00009791633917205A8E91D0622099304F023
:10E4C00073FC29000B2004AB06220E31C01804F0A7
:10E4D0006BFC94346368A360A068002800D185E0D9
:10E4E000C36804A99847A368002BF3D01B69F2E71F
:10E4F00041492000AF8801F03CFAAB79300001932C
:10E5000033689B6A98470600ED30FF3006223900D9
:10E5100000F0EBFE338FBB4204D13000736B34301C
:10E520009B689847220056321378013BDBB2137088
:10E53000002B03D1022193788B4393706A461279A2
:10E5400004AB1F809A70A0346368A360A0680028A1
:10E550004CD0C36804A99847A368002BF4D01B696A
:10E56000F3E75B69A91D002B40D0A88898473DE0E0
:10E57000AE79002E05D122000121583213788B4349
:10E580001370636E002B31D01C4A002A2ED0A36674
:10E59000A06E00282AD0C36831009847A36E002BD4
:10E5A00001D1636EF3E71B69F1E701260D27AB7B11
:10E5B000E91D5A07920F1E400192DB08062204A8AB
:10E5C000EF57029304F0F0FB6A46127904AB1A721B
:10E5D0006A46127A9F715A72DE712B0020000F3347
:10E5E0008C3407938030236804A998472900009849
:10E5F00002F038F80BB0F0BDFFFF000099C1010038
:10E600001FB5A3238022DB00D205D3580820DB07E7
:10E6100000D405301D4B48221D49FFF787FE002816
:10E620000BD080B2002808D1BFF34F8F194A1A4B84
:10E63000DA60BFF34F8FC046FDE702AC082200212D
:10E64000200004F0BAFB012320002370FFF7C8FE6E
:10E65000002801D0072017E06846FFF7BFFE00281A
:10E66000F8D16946FFF7B8FE0028F3D10B48FFF751
:10E670008DFE80B2002807D10948FFF791FE80B2D5
:10E68000002801D100F09EF904B010BDEDE30100B7
:10E69000F42A00200400FA0500ED00E011E4010076
:10E6A000E5E301007047000080B2002808D1BFF305
:10E6B0004F8F044A044BDA60BFF34F8FC046FDE72B
:10E6C0007047C0460400FA0500ED00E010B50022D6
:10E6D00004000270431C11341A700133A342FBD1B1
:10E6E000418210BD10B50378002B08D10B78002BA8
:10E6F00011D1428A4B8A9A420DD101200CE0012BA4
:10E7000009D10B78012B06D101310130102204F020
:10E710003CFB0028F1D0002010BD00000300F0B544
:10E7200007005F3391B001931B7805000E005C3742
:10E73000022B00D07CE007AC24220021200004F052
:10E740003CFB002108A8FFF7C1FF00232376638369
:10E75000A383E38323849533FF33EB58079A9342D3
:10E760001BD12800993008A9FF30FFF7BBFF002814
:10E7700013D02B009533FF331A7E217E4A40520678
:10E780000BD1598B628B914207D1DA69E1698A42D8
:10E7900003D11A8C238C9A4247D0002E2FD11823F4
:10E7A0003A7831005343EB1876331A88D9235B004B
:10E7B000EA522B0002A830330093FFF787FF02A92B
:10E7C0000098FFF78FFF002811D129009931FF3100
:10E7D0000098FFF787FF002811D031002000FFF7D5
:10E7E00075FFA81D2100FFF77DFF002807D1280035
:10E7F0006B6C4430002B02D0134B002B1DD1242214
:10E800000021200004F0D9FA002108A8FFF75EFFDC
:10E81000280000239530FF302222210023766383D5
:10E82000A383E383238404F0BFFA0123019A1370C6
:10E830003B7801333B7011B0F0BD29009531FF31B9
:10E840002B6D9847DBE7C04699C101007FB50400F6
:10E85000002002F0A5FE050003689B6998472B681D
:10E8600028009B6A98470600050020883436303817
:10E87000082800D994E005F037FB0593137E212D7D
:10E8800093455F00E388002B05D1210030000C3157
:10E8900002F064F884E06B6B30009B6898477FE07F
:10E8A000E388002B05D1210030000C3102F0DAF8AA
:10E8B00076E000213000FFF731FF71E06B6B300034
:10E8C0005B68984700286BD0210030000C3102F0C3
:10E8D00025F965E06A46A3881380A3895380E389FC
:10E8E0009380238A1234D3800294AB68EB60E8688B
:10E8F000002855D0C36869469847EB68002BF4D0D0
:10E900001B69F3E76A46A3881380A3895380A37B1E
:10E910001371238AD380638A1434138103946B693F
:10E92000AB61A86900283BD0C36869469847AB69CA
:10E93000002BF4D01B69F3E76A46A3881380A389F0
:10E940005380A37B1371238A12340294D3802B6AE1
:10E95000002B25D0164A002A22D06B62686A002854
:10E960001ED0C368694698476B6A002B01D12B6A99
:10E97000F3E71B69F1E72800E388ED30FF30A18859
:10E98000002B05D085225200934206D1002205E0DB
:10E9900022000C3200F0BCFC02E00B2200F0A5FCCF
:10E9A000300002F0E1F9300002F05CF97FBDC046B2
:10E9B00099C1010077DF704778DF70477ADF7047D1
:10E9C0007CDF70477FB502AC08220021200004F0F4
:10E9D000F4F9282323806933FF33124E6380E380E8
:10E9E000803BFF3B01AD30002B7004F071FB310028
:10E9F00082B22800FFF7E4FF80B200280FD1802008
:10EA00008000FFF7D9FF80B2002808D12000FFF76F
:10EA1000D5FF80B2002802D1FFF7CCFF80B204B04E
:10EA200070BDC046BC4902007EDF704768DF70479A
:10EA300070B500200C0002F0B3FD0368DB6A984754
:10EA40002378142B17D002D8132B05D03FE0152BB9
:10EA500018D0222B35D03AE064680122A37819003F
:10EA60005D0811402A404568DB065B0F002D2ED063
:10EA70002088A8472BE08368002B28D06268917813
:10EA800010881CE06468A27813091207120F012A8B
:10EA900002D0022A08D00DE0013BDBB20021022B9C
:10EAA00009D80C4AD15C06E00421012B03D00131C6
:10EAB000022B00D00021C368002B08D02088984783
:10EAC00005E00369002B02D0626810889847002097
:10EAD00070BDC046C2490200014B18787047C0465D
:10EAE0003D2B0020F0B51E002F4B87B00092019304
:10EAF0001A78002305000C009A4252D1FFF7D8F98A
:10EB0000002801D00B234CE0002E0ED003A92220B8
:10EB10000396FFF78BFF002807D00623082840D074
:10EB200011384342434104333BE0002302AA100062
:10EB30001370FEF705FA011EE4D101261B4F354084
:10EB40003A783440B2432A43630002251400072078
:10EB5000009AAC4302401C431C23AA409C4314432C
:10EB60003C7003AC0C22200004F027F90920104B64
:10EB70003900039302AB0522C018257104F014F983
:10EB800021000C48FEF750FA002807D0072304287C
:10EB900007D0013B082804D0053302E0019B1E701A
:10EBA0000300180007B0F0BD3D2B0020082800200E
:10EBB00031EA01003C2B002010B50748FEF700FBAE
:10EBC0000023984206D00733042803D0013B0828CD
:10EBD00000D00533180010BD3C2B0020002373B576
:10EBE00001930F4B01AD1B780E0029002B70FEF72F
:10EBF000F7FC041E04D0042305280FD007330DE0D2
:10EC000031002800FEF74AFA2300002806D0072327
:10EC1000042803D0013B082800D00533180076BD36
:10EC20003C2B002073B5104C0E000500052221007E
:10EC3000684604F0B9F8012E06D0022E11D1012247
:10EC400023781343B34303E002222378B34393436F
:10EC5000694628002370FFF7E7FE031E02D00B234E
:10EC600000E00223180076BD08280020094B10B5EB
:10EC70001A7801000923002A09D00748FEF746FA4E
:10EC80000023984203D003330E2800D0033318002A
:10EC900010BDC0463D2B00203C2B002010B5FEF7D8
:10ECA000EEFC10BD022310B50B708C330B713F3B93
:10ECB0004B712D338B714A1C0431FEF7B7FC10BD2C
:10ECC000A2DF7047A3DF704763DF704710B586B0DF
:10ECD0006B46DC1D00232370C15C02AA99540133EA
:10ECE000102BF9D121001000FFF7EEFF002398420E
:10ECF00000D12378180006B010BD00000122F0B545
:10ED0000438A87B00393037804000192002B42D01A
:10ED100083180093254B11271A681D0002920022C8
:10ED20002349029B934217D03E00002356438E197D
:10ED3000981E012805D9F05C84460098C05C844583
:10ED400008D10133102BF3D111235A4389180B7CBE
:10ED5000019320E00132E4E70098FFF7B7FF237842
:10ED600006000190002B01D112340094029B042B69
:10ED700011D01800112460430D4F1022381800994B
:10ED800004F012F800222B685C4301333F19BA707B
:10ED9000FA703E742B606A46127905AB9A705888F7
:10EDA000039B00040343180007B0F0BD402B002074
:10EDB000442B0020F0B59BB01F0020AB029102CB8A
:10EDC0000BAC1B880391049322AB1B880190059325
:10EDD00023AB1B782000069325AB1E8826AB1B783F
:10EDE000079327AB1B78089308ABD91D0A70012243
:10EDF00003F0DAFF302322781A4211D00CAC032240
:10EE00000021200003F0D9FF0622A3789343043A9F
:10EE100013430E32A3701100012319432170617056
:10EE200013AC1C220021200003F0C7FF0BAB1D78A0
:10EE300030232B40591E8B410CAA5B421A4025708F
:10EE40006261002E05D0249B002B02D063602681D6
:10EE500066810DAC03220021200003F0AEFF0120EB
:10EE6000079B089A03400240DB001101DBB20B4311
:10EE70001A00069B03401800022313430343A370A8
:10EE800032231D421ED0781E04281BD82278233B33
:10EE90009A4305F029F80305070C1100012107E04A
:10EEA00001210AE001210A431340302208E0022137
:10EEB0000A431340102203E002210A431340202298
:10EEC000134323700C231D421ED0781E04281BD828
:10EED000627803339A4305F007F80305070C110025
:10EEE000012107E001210AE001210A4313403022F9
:10EEF00008E002210A431340102203E002210A43E2
:10EF000013402022134363700EAD14220021280009
:10EF100003F053FF029B2A000E936B461B8A13A932
:10EF20002B816B469B8A0198AB81039B6C602B61A4
:10EF3000289BFFF7C5FE80B21BB0F0BDF0B589B0CD
:10EF400000930EAB1B8805000F00160001930322EF
:10EF50000FAB002102A81C7803F02FFF012302222F
:10EF60001C40144302AA94701900102202A81143F5
:10EF7000020003AC0170517020001422002103F044
:10EF80001CFF02AB63606B461B88109A23816B46A3
:10EF90009B88210028000397A3812661FFF792FE3A
:10EFA00080B209B0F0BD93DF704710B50368002B45
:10EFB00001D00800984710BD10B50368002B01D0A0
:10EFC0000800984710BD03680A6870B505000C007A
:10EFD00093422BD10379002B0CD10B79002B25D137
:10EFE000C28ACB8A9A4221D12B7E227E53405B0675
:10EFF0000DD01BE0012B19D10B79012B16D1053156
:10F000000530102203F0C1FE0028EDD00EE06A8B1F
:10F01000638B9A420AD1EB69E269934206D12B8C49
:10F02000208C181A42424241D0B200E0002070BD4C
:10F03000F8B504000D00222203F0B6FE2A002300DA
:10F040002432243343CA43C32B6B002123632300A0
:10F05000616338330832C1CAC1C36B6C200063647A
:10F06000A164F8BD70B506000D000400E436290067
:10F070002000FFF7A8FF002802D14C34B442F6D19B
:10F0800070BD70B50D0004000B68102203600B7991
:10F090000371CB8A0531C382053003F085FE2B7ED8
:10F0A000200023766B8B6383AB8BA383EB8BE38393
:10F0B0002B8C238470BD000007B501AB19801900AB
:10F0C0005A80FFF770FF032310280CD003D80023C9
:10F0D000984208D006E00523112804D0034A013BDA
:10F0E000904200D00B2318000EBDC0460230000035
:10F0F0000023010070B5040003600371421D153147
:10F100001370013200258A42FAD120002900E582DD
:10F1100025766583A583E58325840C22243003F0BE
:10F120004CFE2000064B6563236329000C22383017
:10F1300003F043FE034BA5642000636470BDC0462A
:10F14000ABEF0100B9EF010010B50400FFF7D0FFED
:10F1500020004C30FFF7CCFF20009830FFF7C8FFAD
:10F16000200010BDF8B5040016001D00FFF789FF50
:10F1700023003200243383CA83C3F368002223634D
:10F180002300290062633833C1C9C1C3EB68200082
:10F190006364A264F8BD70B58AB004000190038C6A
:10F1A0000E000168132003ADAB8013780391AB719F
:10F1B000538A511C684410222B8303F0F5FD200074
:10F1C0006E8302952430236B01A998470AB070BD65
:10F1D00007B503006A460090117138305B6C6946D0
:10F1E000984707BDF0B50C00A7B068461500FFF7BB
:10F1F00048FF220009AB243243CA43C30021236BDA
:10F200000D910C9308320EABC1CAC1C3636C13A835
:10F2100011931291FFF76CFF13A92000FFF708FF6D
:10F2200029006846FFF7D4FF27B0F0BD30B50400D1
:10F2300097B003A8FFF75CFF03A92000FFF7C3FE08
:10F24000051E18D00F9B226B0193934213D121000E
:10F250000C2224310CA803F098FD00280BD1149B3C
:10F26000626C934207D121000C22383111A803F0BF
:10F270008CFD002800D00025280017B030BD70B5E7
:10F2800005000E000400E43531002000FFF79BFE6E
:10F29000002806D02000FFF7C9FF002801D1200078
:10F2A00003E04C34A542EFD1002070BD10B504003E
:10F2B000FFF7E5FF011E03D000222000FFF792FFB9
:10F2C00010BD70B505000E000400E435238CB34278
:10F2D00006D12000FFF7AAFF002801D1200003E09B
:10F2E0004C34A542F2D1002070BD70B50400150069
:10F2F000FFF7E7FF011E03D02A002000FFF772FF8F
:10F3000070BD10B5FFF7DDFF431E9841C0B210BDC0
:10F31000F0B58BB0060001911700FFF7D2FF051E74
:10F3200033D000243B889C421AD206236343FB1847
:10F330005A889B880292039300239C4605AA137067
:10F340006146D01801334170102BF9D16B469B896F
:10F350000299280001345382A4B2FFF71CFFE1E7B1
:10F360000622013B5343FF187988EA8B013189B2A9
:10F37000914201D9002204E00198FFF79DFE021E90
:10F3800003D029003000FFF72DFF0BB0F0BD70B5A2
:10F3900005000400E4352000FFF748FF002803D1F2
:10F3A0004C34AC42F7D10400200070BDF0B54C8B5A
:10F3B0001E000234CB8B99B0A4B207000D0003925B
:10F3C00001939C420BD90822002105A803F0F5FC0B
:10F3D0000595F36805A93000984700241EE00B8CC2
:10F3E00019000293FFF78DFF002801D0052415E0D6
:10F3F0003800FFF7CCFF071EF8D02100019A0298D1
:10F40000FFF75AFE041E09D129003300039A05A80C
:10F41000FFF7A8FE05A93800FFF70AFE200019B083
:10F42000F0BD0284012230B503AC258804AC4583CD
:10F43000150024881D408483047E0160944359088C
:10F4400011402C4302259140AC430C4304219D08FC
:10F450001540AD008C432C430825D9081140C90044
:10F46000AC430C4310211D0915402D018C432C4346
:10F47000202559099B09AC4311401A4093012200F1
:10F4800049010A4340218A431A43027630BDF0B550
:10F4900089B01C000EAB1D780FAB1B8810AE00931B
:10F4A00033880026B446016003A9019302840E70DC
:10F4B00063468A1901365370102EF9D14C82041D0F
:10F4C0008CC98CC40CC90CC46B461B88047E438356
:10F4D0006B469B886908838301231A009C432A405A
:10F4E000194014430222994094430C430421AA0872
:10F4F0001A4092008C4314430822E9081940C900BD
:10F5000094432A091A400C431201B44314432022A5
:10F5100069099443AA09194013409A01230049013B
:10F520000B4340218B431343037609B0F0BD70DFDA
:10F53000704771DF704772DF704773DF704774DFA9
:10F54000704775DF704776DF704777DF704778DF89
:10F55000704779DF70477ADF70477BDF70477CDF69
:10F5600070477DDF704786DF704787DF704788DF31
:10F5700070471420704764207047A02080017047B6
:10F5800010B5FFF7F2FF031E00D00523180010BDD1
:10F5900010B50400FFF7D3FF0323002806D1230092
:10F5A000012158331A788A431A700300180010BDDD
:10F5B00008003B2110B58A4200D02839FFF7C3FF6D
:10F5C00003005A1E934103205B42184010BD030004
:10F5D00010B5FE330A00D98B03681B6A984710BD2B
:10F5E00010B50800FFF7B9FF03005A1E934103202E
:10F5F0005B42184010BD10B50800FFF7ACFF0300D8
:10F600005A1E934103205B42184010BD080010B5FC
:10F610001100FFF796FF031E00D00323180010BD52
:10F62000080010B51100FFF79CFF031E00D0032354
:10F63000180010BD10B50800FFF789FF031E00D0A9
:10F640000323180010BD10B50800FFF782FF031E4A
:10F6500000D00323180010BD10B50800FFF775FF98
:10F660000023984203D00533112800D0023B180034
:10F6700010BD0000024B0B60092313607047C046A9
:10F68000D449020008207047B8300170002070474C
:10F69000B93001700020704702207047B830007800
:10F6A0007047B930007870470020704710B5036884
:10F6B000002B01D00800984710BD10B50368002B3F
:10F6C00001D00800984710BD0200030010B5F332C6
:10F6D00011786C309B6F984710BD10B5002801D091
:10F6E0001CC91CC010BD704710B5416803684A10A2
:10F6F0008068C90701D58158CB588018984710BD3C
:10F7000013B50C001100012C06D86B460622581CBC
:10F7100003F04AFB002005E0A31E012B01D90320C2
:10F7200007E001206B4669461C70FFF700FF0028C8
:10F73000F5D116BD37B568460D001400FFF7F9FE88
:10F74000032300280DD1002D02D06B461B782B70AF
:10F75000231E06D06B460622591C200003F024FB12
:10F76000002318003EBDF8B506000D000024072751
:10F770003300BA331B78A3420ED96B79A3420BD95D
:10F78000380060432B683118BB3118180722013448
:10F7900003F00AFBE4B2EBE72C710020F8BD112363
:10F7A00037B5080001AC23700D0003F091FC29006F
:10F7B00082B22000FFF7D3FE031E00D003231800FF
:10F7C0003EBD0000012110B5044A0800FDF73EF9D6
:10F7D000031E00D00B23180010BDC04669FC0100B9
:10F7E00010B50C00C97F01201F290ED8002901D1B6
:10F7F00003200AE0D37F2000FFF79DFE0028F7D109
:10F80000208CFFF7A4FE0028F2D110BD70B50400D3
:10F810000068002804D0056902F030FC2800F8E7F1
:10F82000206070BDF8B503680700DB6C0D000C7933
:10F8300098470323844228D8002307212879DAB285
:10F84000904208D90A005A432C680133125D032AFA
:10F85000F5D1042319E03E000024BA3634702B7928
:10F86000A34211D9072161432B6830785918072327
:10F87000584338181A00BB3003F096FA3378013435
:10F8800001333370E4B2EAE700231800F8BD00004A
:10F89000F0B50600040087B0AC367368B360B56895
:10F8A000002D08D0EB68210028009847B368002B92
:10F8B000F3D01B69F2E72000B030FFF7A7FF22006A
:10F8C000FC235832117826000B40137023000A36AF
:10F8D00056331D709D7129001F22300003F06DFA10
:10F8E000F5772A3629001F22300003F066FA20003F
:10F8F000F5776430FFF78AFF20009830FFF786FF26
:10F90000200001AEA430FFF781FF29000C22300057
:10F9100003F053FA230032006C3383CA83C3094BCC
:10F92000E567A3670C222900300003F046FA2300A4
:10F93000803307CE07C32800034A90341A6025603D
:10F9400007B0F0BDBBF60100ADF6010010B5040034
:10F95000FFF79EFF00280AD123000122FE33524206
:10F96000DA83BA34463B18705870207000E00620E5
:10F9700010BDFE30C1837047FE30C08B7047000061
:10F98000F0B593B0019000200C0001F009FE03686F
:10F99000DB6A9847FFF7A0F806AB00280DD00022DD
:10F9A0001A7105AA0692082218001A730AAA9A6008
:10F9B000FFF75CF9002802D052E018711873002399
:10F9C0001F0023732371019BBA331B78BB4246D9B6
:10F9D00007237B43019AD218BB321278022A31D115
:10F9E000002506AE337BAB4236D907207843AB0007
:10F9F0000293019BAA001818089BBB309958FFF787
:10FA00004DF900281BD0B368AA009A58237BA1683F
:10FA10009B005A50237B01332373337B5A1E95423C
:10FA200008D01049B2685B189B009B580393039958
:10FA3000029BD15006AA137B013B13730CE00135E6
:10FA4000EDB2CEE701992279CB182168BB33920041
:10FA500053502379013323717B1CDFB2B3E70020BD
:10FA600013B0F0BDFFFFFF3F70B598B008AB009337
:10FA700010AB02936A460023050013711373B93566
:10FA80002B780C00002B1ED1012304A82A780678BD
:10FA9000A1799E43194013405A0033000B430221C1
:10FAA0008B43134303706B46436023880381638851
:10FAB0004381A3888381FFF756FD421E90410323B3
:10FAC0004042034005E06946FFF75AFF0028DBD0BB
:10FAD0000300180018B070BDF0B59DB01F006B4654
:10FAE00005001A70581C0622229E02AC03F05CF935
:10FAF000002F07D03B8823807B886380BB88A3804E
:10FB0000FB8806E032232380DB186380F533A7806F
:10FB1000FF33E3800CAB04A9049314AB8B602F007C
:10FB20000023B9370B710B733B78002B17D10120E1
:10FB30003B78022708A903405A000B78BB4304AF67
:10FB40004F601343002E10D0B27983430240134319
:10FB50000B7033880B8173884B81B38811E02800C8
:10FB6000FFF70EFF0028E2D029E02A003232127897
:10FB70008343024013430B70AB8D0B81EB8D4B81A4
:10FB80002B8E220068468B81FFF7F1FC03000020DA
:10FB9000834214D00630082B11D005D80130042B35
:10FBA0000DD0834208D109E00520112B07D0054A6A
:10FBB000934203D0102B01D00B2000E004201DB095
:10FBC000F0BDC0460232000070B50C0009789AB052
:10FBD000022201293ED06388032906D1A03B1F4D94
:10FBE0009BB20A00AB4235D805E0203B1C499BB2D2
:10FBF00003228B422ED81B4BA1880322994229D87D
:10FC00000AAB009312AB02936A46002305001371FE
:10FC10001373B8352B78002B04D06946FFF7B0FE7C
:10FC2000021E17D104AE18220021300003F0C5F8DF
:10FC30002378300033702B7833726B46F36063881F
:10FC40003382A3887382FFF778FC431E9841032216
:10FC50004042024010001AB070BDC046603F000034
:10FC6000E03F0000FF3F000030B5040087B00020F7
:10FC700001F096FC03689B6998470300F3331C70FE
:10FC8000114B050002930023049003930D300F4B9A
:10FC9000FF300400F4350593FCF7F4FE002C09D086
:10FCA000059B002B03D05B6802A920009847059BA9
:10FCB0000193E3600021280002F068FD02A8FCF730
:10FCC000E1FE07B030BDC046C9F60100C8490200D8
:10FCD0000220704700207047704790DF704795DF23
:10FCE000704797DF704793300078431E9841C0B249
:10FCF0007047080010B511001A00FFF7F0FF00234D
:10FD0000984204D01138434243410620C31A1800D8
:10FD100010BD000030B5002485B001AD6B80089B9C
:10FD20002970EB80099B290010006C70AC80039354
:10FD3000FFF7D7FFA04207D00534112804D0044BA9
:10FD4000C018444244410634200005B030BDC046CE
:10FD5000FCCFFFFF10B50368002B01D008009847C7
:10FD600010BD10B50368002B01D00800984710BDE6
:10FD700010B50368002B01D00800984710BD10B5DE
:10FD8000ED30FF30FFF712FB10BD10B5ED30FF3046
:10FD9000FFF768F910BD10B5ED30FF30FFF786FAB8
:10FDA00010BD70B504000068002804D0056902F099
:10FDB00065F92800F8E7206070BDF0B587B001ABA9
:10FDC0001A000C00E0CCE0C20200B532FF32C96874
:10FDD00070CB70C20023B530FF30C160036107B043
:10FDE000F0BD0000F0B597B00593036807AC1B6841
:10FDF00004910393110023000600A1C9A1C30025AB
:10FE0000D36829000C220CA80A9311AF0B9502F0BD
:10FE1000D4FF094B290038000F931095FEF756FCCC
:10FE2000059B2200009301970CAB04993000039CC2
:10FE3000A04717B0F0BDC04663FD0100F0B5002635
:10FE4000050089B003AC868031002000FEF73EFC3F
:10FE50002100A81D142202F0A7FF31000C2220006F
:10FE600002F0ABFF2B0022001C3383CA83C30F4B6D
:10FE70003100AB62EE6220000192FEF727FC2B00FE
:10FE80002200303383CA83C3019A03CA03C30C22FE
:10FE90003100200002F091FF2B00443307CC07C350
:10FEA0003000034B6E652B6509B0F0BD55FD0100B8
:10FEB00063FD010070B5040086B0E36A2363206B24
:10FEC000002807D0C36821009847236B002BF4D08B
:10FED0001B69F3E720002C30FFF763FF2000083098
:10FEE000FFF75FFF20001430FFF75BFF200020309A
:10FEF000FFF757FF20003430FFF7A0FF051E29D180
:10FF000023009033187058709870D870C2235B002B
:10FF1000E050E218863BFF3B53609360D36013616F
:10FF2000CE225200A05022009D32FF3201AE53601B
:10FF30009360D360136101000C22300002F03DFF9A
:10FF40002300B533FF3307CE07C3B534034BFF346B
:10FF5000E3602561002006B070BDC04671FD010060
:10FF600070B504008AB001AD24220021280002F0FF
:10FF700024FF002102A8FEF7A9FB200000269530EF
:10FF800022222900FF302E766E83AE83EE832E84EC
:10FF900002F00AFF236820005B68984723005F3364
:10FFA0001E70B0420DD0C0235B00E358B34208D0AE
:10FFB000054BB34205D020008130FF30A188C368D3
:10FFC00098470AB070BDC04699C1010010B53430E1
:10FFD000FFF7C6FF10BD0000F0B591B0019106A972
:10FFE00004009C4610000B00E0C8E0C3D3686546DF
:10FFF00003930BAB18000293C8CDC8C020002700A4
:020000022000DC
:100000003430059093373D780620002D3FD160466F
:10001000C368049350239C46A444634645C945C322
:10002000039B029AE36523002566783343CA43C3E2
:100030002000049A16991A6004331D6014223A3085
:1000400002F0B2FE200014221799643002F0ACFED8
:100050006B469B88012123872300903491331D70C8
:100060002A00257001983970FFF737FE0400280038
:10007000002C0CD00598FFF773FF0520112C06D03B
:10008000044B9C4202D00130072C00D1042011B057
:10009000F0BDC04602300000A0DF7047A4DF70470B
:1000A000A5DF7047A6DF7047A8DF7047A9DF70475C
:1000B0000020704713B504680093A46813000A0079
:1000C0000149A04716BDC046FFFF0000F7B50D006F
:1000D00016000021082268461F00089C02F06DFEF1
:1000E0006A4623883100280013800197FFF7D8FF64
:1000F0000323002803D16B461B88238003001800CC
:10010000FEBD000037B506AC257804680195009364
:10011000246913000A000149A0473EBDFFFF00000B
:10012000F8B5040000200D00160001F039FA03684C
:100130009B69984723689F69FFF71EFC3300010005
:100140002A002000B847F8BD70B5040000680028F8
:1001500004D0056901F092FF2800F8E7206070BD27
:10016000F0B5D48B02001E000023457985B0C4325F
:100170009D4223D908321700083F3F88A74210D17B
:100180001833DB00C3180E241A8902236C44238021
:10019000036803AD00949F682B00B847021E02D08D
:1001A0000DE00133E4E723880620022B07D12B88DA
:1001B00010009B0703D00123337000E0042005B03A
:1001C000F0BD0000F0B589B0019307000FAB0D0042
:1001D00016000021082202A81C7802F0EEFD0EABEA
:1001E0001B8802AA1380019B0393002C09D03100C5
:1001F0002800FFF753FF421E904103234042034073
:1002000071E03B007A79C433A24211D90833190056
:1002100008390988B14209D130221C34A4003F19A1
:100220007B680133DB7F134227D101E00134EBE728
:1002300002AA31002800FFF731FF0C2801D1032367
:1002400051E00C2808D80528F9D0072813D000233E
:10025000984248D00B2346E010280CD003D808233E
:100260000F2840D0F6E7214B9842E8D0D0239B01DD
:100270009842E4D0EEE7042335E002220020DB06BA
:10028000DB0F04ACD31AA370019B2680E3600EAB96
:10029000A360174BA0809D4207D101F081F903684C
:1002A0009B699847FFF768FB050021002800FFF7CE
:1002B000F9FE83B2002B16D01800112B12D002D8F1
:1002C000082B06D007E00B4B98420BD00A4B984204
:1002D00001D1062307E002AA31002800FFF7DEFE65
:1002E0000028ACD10523180009B0F0BD0230000091
:1002F000FFFF00000330000001340000F0B50500EE
:1003000097B008002E240B91FEF7F8FC04ABE4181C
:100310001090220010A90120FFF7BEFE002801D096
:100320000320D1E023880B9A0A9093830B9B0A9AAF
:100330001B7D934253D96B79132B01D90720C3E05E
:100340000B9B9B690C930A9B0C9A9B009C586369BE
:10035000002B49D1638B002B46D1631CDB7F022B22
:1003600042D137E06979A31C1831C90069180431FA
:10037000621CDB7FD27F089121002A31097800209E
:10038000079121002931097806910D9905910C9961
:100390000491217F0391218B0291618B019161690D
:1003A000009110A9FEF706FD0028B9D16B7907006E
:1003B0001A001C3292001833AA18DB005460EB18A4
:1003C0009B88E3836B7901336B71230028331B789F
:1003D000BB422FD80A980130C3B20A93A6E72B7903
:1003E000002001332B716FE02000FEF787FC002610
:1003F00010900D960C96230028331B78B342B1D988
:10040000626AB3009F580023180011A90B70CA1824
:1004100001335070102BFAD12C4B38004B82FEF771
:1004200061F9002803D07B690C937B8B0D93013617
:10043000F6B2E0E7C2235B00EB5C072B00D97DE757
:10044000626ABB009E580023180011A90B70CA18DD
:1004500001335070102BFAD11C4B30004B82FEF749
:1004600041F90C9000282CD13000FEF747FCC22245
:100470005200AA5C738BC0325200AA180632029254
:10048000327F10900192328B10A9009272690C9801
:10049000FEF754FD002800D042E7C2235B00EB5C6E
:1004A0001A0058329200C033AA185B005660EB184D
:1004B000DB88C222F383C2235B00EB5C5200013372
:1004C000AB54781CC7B280E717B0F0BD012900001B
:1004D000F0B5040087B0236B6363666B002E08D011
:1004E000F368210030009847636B002BF3D01B6941
:1004F000F2E720003030FFF727FE200026716671FA
:100500000C30FFF721FE20001830FFF71DFE200001
:1005100001AD2430FFF718FE31000C22280002F054
:100520004CFC23002A00383383CA83C30F4B3100AD
:100530006364A6640C22280002F03FFC23002A001A
:100540004C3383CA83C3094B0C22A3653100E66593
:10055000280002F032FC2300603307CD07C33000CF
:10056000024B2667E36607B0F0BDC04671FD01008F
:1005700070B50500FFF7ACFF041E1DD12800502206
:100580002100743002F019FC28006530202221007F
:10059000FF3002F012FC280008222100C43002F0D3
:1005A0000CFC28008730FF301022210002F005FCEF
:1005B000C2235B00EC5400E00624200070BD000064
:1005C0000B68002B01D1036002E0024B03600023A3
:1005D0004360704799C1010070B504000D00636865
:1005E000A360A068002807D0C36829009847A368C3
:1005F000002BF4D01B69F3E770BD10B5C3689847B2
:1006000010BD30B5150087B004290ED0052917D0CC
:10061000032925D138300100040004A8FFF7D0FFDA
:10062000049B002B18D1059B14E04C300100040002
:100630006846FFF7C5FF009B002B0DD1019B09E029
:1006400060300100040002A8FFF7BAFF029B002BF4
:1006500002D1039BDB0703D529002000FFF7CDFF64
:1006600007B030BDF0B50B888FB005000C00512BE2
:100670003FD00AD8012B26D0502B00D005E1020034
:10068000CE88C832417900230EE0522B2AD0532B5A
:1006900000D0FAE0CE88052138E008321000083892
:1006A0000088B04203D001339942F6D82DE03021C2
:1006B0001C339B00EB185A68531CDB7F0B4200D0A5
:1006C000C8E02E3922E00C7AEB682B6128690028FB
:1006D00000D1DAE0C368210098472B69002BF3D0E2
:1006E0001B69F2E7002388881A001900FFF7DEFC77
:1006F000CBE08B79012B05D0022B00D0C5E00E8911
:10070000072103E00E89062100E002212B000020D2
:100710006A79C43300900098824200D8B5E008336B
:10072000180008380088B04214D1062959D007298A
:1007300013D03200022900D098E0A3880AA90B80C8
:100740004E80237A0B71A38BCB80E38B20340B81FB
:10075000CC6041E000980130DCE71022002102A8C3
:1007600002F02BFBA38802AA13805680E38B06AF0E
:100770009380238C0021D380230010222233380061
:100780000193049302F019FB02233B70009B1C337E
:100790009B00EB185B681A002A3211780022914204
:1007A00006D0180002A9DB6C4030984702AB9A894A
:1007B000A0883900BA80FFF777FCBB88002B64D192
:1007C000A3880AA90B804E80A37A0B71E38BCB80A0
:1007D000238C0B81019BCB6028001430FFF7FCFEBB
:1007E00053E006AF10220021380002F0E6FAA38899
:1007F0007E803B80A38B0AAE102200213000BB809C
:1008000002F0DBFA0123009833701C3080002D18B1
:100810006B681A00293211780022914205D0180025
:1008200039002C309B6B9847BA89B280BB89002B6A
:100830000BD1BA68002A08D00121B3790B43B371F8
:10084000BB883381FB88F2607381A0883100FFF799
:100850002BFC1AE0A11CC97F0134E07F0902084388
:10086000990607D50321840704D5D28B2800FFF70A
:10087000C8FE0AE00421DB06F7D501230100194078
:100880000B00594259410331EFE70FB0F0BD90DF43
:10089000704792DF704794DF704770B50025040001
:1008A000290020C0FDF712FF25766583A583E58327
:1008B0002584200070BD02680300002A0AD0511E62
:1008C000920040689A1819600433934204D0596822
:1008D0001960F9E701204042704702680300002ACE
:1008E0000AD0511E920040689A181960043393424E
:1008F00004D059681960F9E70120404270470000B0
:10090000F7B50600182733687569002B1DD02B003A
:10091000032274685F337C431A700F4904222C1938
:10092000684602F041FA230074331B8801AA138041
:100930007634238869465380A888FFF7ACFF0028E7
:1009400009D03000FFF7B7FFDDE75F352B78032BC9
:1009500001D1023B2B70F7BDD84A020003000022F0
:10096000F0B55C331A700A788BB004000133042AA6
:1009700000D90422A8201A70012200262700400076
:100980005242231826508D1C5A609A60DA601A6110
:100990006037019023005D331B789E4228D2AB78EC
:1009A000002B0ED1019B0199E3585A1C6250220082
:1009B0005132FF329B00D318AA885E60EB88BA825E
:1009C00011E0298805A8FDF781FEAB881422029367
:1009D000EB8805A93800039302F0E6F96B461B8902
:1009E000BB826B469B89FB82013608351837D1E7FD
:1009F0002300FC335B6D002B04D020005130FF300E
:100A0000FFF77EFF0BB0F0BDF7B506002427336873
:100A10007469002B1CD0230004225F331A70042257
:100A200075680F497D43C03589186846651902F01D
:100A3000BBF96B8B01AA138001335380A0886946F0
:100A4000FFF729FF002809D03000FFF746FFDEE757
:100A50005F342378042B01D1023B2370F7BDC046DD
:100A6000D84A02000300F0B50A7887B004000F00EE
:100A70005E33042A00D90422B4211A700122002511
:100A800049006318524265505A609A60DA601A61F0
:100A9000A83B0493BE1C059123005E331B789D4246
:100AA00030D2B3783189002B17D1059B0598E358D4
:100AB0005A1C225022006932FF329B00D3185D601D
:100AC0000A236B430191F188FB180091A2889B795E
:100AD000A16D0498FEF7A5FC0EE033880291F18821
:100AE000684601910A21694379188979A2880170C1
:100AF000A16D0498FEF7CBFC049B013524330493CD
:100B00000A36C9E72300FC33DB6E002B04D020003B
:100B10006930FF30FFF778FF07B0F0BD7FB5030005
:100B20005F331B780600032B2DD105002E4B0A687E
:100B30005135FF359A4222D110228968684602F069
:100B400033F92800FFF7B7FE18234343F4182300B6
:100B50000122200060331A7069460F32613002F0C2
:100B600023F9230022006E331B786D3421781B0299
:100B700072320B4313802800FFF7C2FE33E02800D7
:100B8000FFF799FE2FE0042B2DD10500174B0A68C3
:100B90006935FF359A4223D18968102203316846AE
:100BA00002F002F92800FFF798FE24234343F418CB
:100BB000230001222000C4331A7069460F32C53069
:100BC00002F0F2F823002200D2331B78D1342178CE
:100BD0001B02D6320B4313802800FFF715FF02E0FB
:100BE0002800FFF77AFE7FBD01001000010013000E
:100BF0000B68002B01D1036002E0024B036000236D
:100C00004360704799C1010010B5C368984710BD93
:100C100073B505000800A9802900002402265E3172
:100C20000C704E7001A90A804B80FFF732FE10282D
:100C30000ED005D8A04210D00634082809D005E00F
:100C40000524112805D0064B984201D00B2400E062
:100C5000042421002800FDF761FD200076BDC04678
:100C600002300000F0B5040018268DB023005F3379
:100C700001931B78012B73D1250020005C355D307A
:100C80002B780278934252D20021A71D07A8FDF7C6
:100C90001DFD07A93800FDF725FD002808D129789A
:100CA0003800714360316118FDF71CFD00283AD00F
:100CB00027001C37390003A8FFF79AFF039B002B7E
:100CC00003D10122049B134211D0002107A8FDF794
:100CD000FDFC200007A93030FDF704FD002806D0F8
:100CE00029783800714360316118A36A9847019BE5
:100CF0001F78012F17D1210005A84431FFF778FF95
:100D0000059B002B02D1069B3B420CD02A78A18880
:100D10007243A2181300743276331B8812882000A5
:100D2000FFF776FFA2E72B7801332B709EE7002AAE
:100D300016D0002B14D01822013B53430022E31895
:100D400076331988074B02702A70994203D120002C
:100D5000FFF706F904E0A088FFF799FD0028F6D117
:100D60000DB0F0BDFFFF00000300F0B55F3397B09A
:100D700002931B780400022B00D0CAE003009533D5
:100D8000FF33242200210DA8019302F016F80DA8CC
:100D9000FFF783FD0DA90198FEF715F9011E35D166
:100DA00023005E331B78002B30D02300D92226008D
:100DB000DA331B885200013BA352303608A8FDF7F6
:100DC00085FC08A93000FDF78DFC051E11D121001E
:100DD0009931FF313000FDF785FC002816D029003D
:100DE0000DA8FDF773FCA01D0DA9FDF77BFC0028E5
:100DF0000CD125004435290004A8FFF7F9FE049B17
:100E0000002B00D07BE0059BDB0778D40025270072
:100E10005E373E78B54249D2029B1B78022B78D1CF
:100E2000731E9D4209D124214D432900C031611810
:100E30002222019801F0B8FF38E0242324226B43DA
:100E4000C033E7186B1C5343C033E3185B8B00219E
:100E5000013BFB83230008A830330393FDF736FCE6
:100E600008A90398FDF73EFC061E0FD1391D039813
:100E7000FDF738FC002816D031000DA8FDF726FC40
:100E8000A01D0DA9FDF72EFC00280CD1260044362C
:100E9000310006A8FFF7ACFE069B002B34D10122DF
:100EA000079B134230D10135EDB2B0E7029B1B78AE
:100EB000022B2ED1002E08D02233013E5E43C036D5
:100EC000A619B38B01339BB200E0134B22005C32B6
:100ED000117818224A430021A218763212883970FC
:100EE000934208D20DA90B804A80A088FFF7D1FC5D
:100EF00000280ED00B212000FDF710FC09E001991D
:100F00002800FFF781FE81E739003000FFF77CFE03
:100F1000C9E717B0F0BDC046FFFF000002207047D0
:100F2000022070470020704700207047004870473B
:100F3000FFFF000002207047022070470220704728
:100F4000022070470220704702207047022070473D
:100F5000022070470220704702207047022070472D
:100F60000220704702207047002313607047002062
:100F7000704702207047022070470220704702200D
:100F80007047022070470020704700207047002003
:100F900070470220704702207047416070478160AF
:100FA0007047C1607047016170474161704702201E
:100FB00070470220704702207047022070470220CD
:100FC0007047022070470220704790DF704766DF4D
:100FD000704748DF70475F300078431E9841C0B2C9
:100FE0007047007970470C3070470C30704710B56F
:100FF00003689B6B9847FFF7ECFF10BDF7B50193B3
:10100000036800915B6804001700984705000620FC
:10101000002D3BD123003A001C3343CA43C3FB6875
:10102000019AA3622300E562443343CA43C3019B90
:101030001422DB68089923656565A01D01F0B4FEE4
:10104000200014220999303001F0AEFE6B461B8857
:101050000121A38023005D331D70013B1D70D970F9
:101060002A000098FFF7B1FF06002800002E0DD0DF
:10107000236820009B6898470520112E06D0044B5A
:101080009E4202D00130072E00D10420FEBDC04692
:1010900002300000044B10B51A78002A03D0002259
:1010A0001A70FDF7E9F810BDF02A0020FC3070B589
:1010B000846B0500002C0DD1242000F0D3FF064BDB
:1010C00044608361054B8460C46004614461C46111
:1010D0000360A863A86B70BDB44B02006C4C0200A7
:1010E0000823F0B597B002AA137106AA029202AAC9
:1010F000137310000EAB0C000493FDF7B7FD061E32
:1011000002D10500072710E00023237130E03800EA
:10111000029B6843019322680199AB00101859584B
:10112000072201F041FE0135EDB202AB1B79AB4263
:1011300004D96379AB42EAD8257119E025710727F4
:10114000002502AB21791B7B6918AB420FD963796B
:1011500099420CDA794323685918049B0193019A48
:10116000AB0098580135FDF79DFDEDB2E9E721711F
:10117000300017B0F0BD10B5FDF71EFD10BD10B565
:1011800008001100FDF74EFD10BD10B5080011005C
:10119000FDF724FD10BD10B5080011001A00029BD8
:1011A000FDF7A0FC10BD00007FB503791548002BAA
:1011B00026D0154D154C2B782000002B20D102AEE7
:1011C0003000FFF704FF002814D17388592B11D188
:1011D0003378B288D91F012902D800920C4A01E065
:1011E00000920C4A2021200001F0C8FE01232B7040
:1011F000200005E020220849200001F070FFF7E7F9
:1012000004B070BD984C0200882B0020C42C002034
:10121000B24C0200CF4C0200F44C020070B5040046
:101220000068002804D0056900F028FF2800F8E7CE
:10123000206070BD10B50400024B08C0FFF7EEFF40
:10124000200010BD404C020010B50400FFF7F2FF73
:10125000200000F013FF200010BD000010B50400B6
:10126000024B08C0FFF7DAFF200010BDE44B02007C
:1012700010B50400FFF7F2FF200000F0FFFE200091
:1012800010BD000010B50400024B08C0FFF7C6FFF8
:10129000200010BDD44B020010B50400FFF7F2FF90
:1012A000200000F0EBFE200010BD000010B504008F
:1012B000024B08C0FFF7B2FF200010BDC44B020074
:1012C00010B50400FFF7F2FF200000F0D7FE200069
:1012D00010BD000010B50400024B08C0FFF79EFFD0
:1012E000200010BDF44B020010B50400FFF7F2FF20
:1012F000200000F0C3FE200010BD000010B5040067
:10130000024B08C0FFF78AFF200010BDB44B02005B
:1013100010B50400FFF7F2FF200000F0AFFE200040
:1013200010BD70B50400E3692362256A002D08D062
:10133000EB68210028009847236A002BF3D01B6933
:10134000F2E720001C30FFF769FF28006560A56008
:10135000E5602561656170BD10B5FFF7E2FF00280B
:1013600000D0062010BD000010B50400024B08C0DC
:10137000FFF754FF200010BD084B020010B5040019
:10138000FFF7F2FF200000F079FE200010BD000002
:1013900010B50400024B08C0FFF740FF200010BD4D
:1013A000F84A020010B50400FFF7F2FF200000F039
:1013B00065FE200010BD000010B50400024B08C0FF
:1013C000FFF72CFF200010BDE84A020010B5040012
:1013D000FFF7F2FF200000F051FE200010BD0000DA
:1013E00010B50400024B08C0FFF718FF200010BD25
:1013F000184B020010B50400FFF7F2FF200000F0C8
:101400003DFE200010BD000010B50400024B08C0D6
:10141000FFF704FF200010BD304C020010B504009F
:10142000FFF7F2FF200000F029FE200010BD70B58C
:10143000037904000920002B28D0FCF79BFF030050
:101440000520002B22D12500FC35286B002803D174
:10145000A86B002806D10AE003681B6A9847002899
:10146000F6D013E003689B6A984700280ED1686B9A
:10147000002804D00368DB6A9847002806D12000C2
:101480000C30FEF763FA002800D1207170BDF7B56B
:10149000037907000E001400002B08D00822002159
:1014A000684601F08AFC0A256B461D710CE0FDF7C9
:1014B000A7F805000C20002D0FD1012308223B7155
:1014C0002900684601F079FC3000FAF7A7FEE368CE
:1014D00000906946200098472800FEBDFC3070B59A
:1014E000846B0500002C0DD1242000F0BBFD064BC1
:1014F00044608361054B8460C46004614461C461DD
:101500000360A863A86B70BDB44B02006C4C020072
:10151000124B10B508330360114B0400C3608023E5
:10152000104A5B00C250C018FBF7B6FA20000E4B01
:10153000B830E360FFF754FF2000AC30FFF714FF32
:101540002000A030FFF724FF20006C30FFF734FFAD
:101550002000FAF7DFFE200010BDC046FC4C020060
:10156000E8490200D0500200284B020010B50400E8
:10157000FFF7CEFF200000F081FD200010BD10B568
:101580001F220021040001F018FC0023E37710BDA6
:1015900010B5FEF7E5FC10BD004870478C2B00200D
:1015A000004870478C2B0020444AF0B50600C2600A
:1015B000A022434B16360833036001000023428209
:1015C0000400320085B00371836003748382353177
:1015D0001370013200259142FAD180278022200029
:1015E000D201BF001100F57737842B000095383009
:1015F000FAF798FE23002100403303931A002B00D2
:101600005F311370013200258A42FAD1039B220018
:10161000DD77230060331F809D70FC2364321178D6
:1016200020000B401370230068331D70254B2900E8
:10163000E36625670C22783001F0BFFB230027000A
:1016400088331D60204B0837FB67843729000C2244
:10165000380001F0B2FB1D4B1D4AFB602300A03394
:101660003D611A601B4A5D60DA601B4A1D619A6128
:10167000DD613000FFF783FF0398FFF780FF174B12
:10168000601CE3602300C4331D705D709D70FF30EB
:1016900001F0D2F823001933FF33DD608023104AB4
:1016A0005B00E250230001222000FE3352425A85A3
:1016B000023B1D635D639D6305B0F0BD284B0200D6
:1016C000FC4C0200E84A0200BBF60100ADF6010046
:1016D000F84A0200084B0200184B0200E8490200D9
:1016E000D050020070B50C220D000021040001F062
:1016F00064FB00232361024B25602000E36070BD82
:1017000071FD010070B500250400254B05710360D3
:10171000244B45718360244BC5604361234B856135
:101720000362234B4562C362056329003830FFF72B
:10173000D9FF200029004C30FFF7D4FF20002900FA
:101740006030FFF7CFFF1B4B220023602300C43221
:10175000743320C39342FCD126001D006536FF364A
:10176000280008220021083501F027FBAE42F7D1FE
:101770002100330000208531FF3101C3002299424E
:10178000FBD1C2235B00E254210023009731873351
:10179000FF33FF311A8002339942FBD1200070BD24
:1017A000044C0200C44B0200D44B0200E44B020084
:1017B000F44B0200B44A0200FC30036B70B5040025
:1017C000002B07D1CC20400000F04CFC0500FFF7B7
:1017D00099FF2563206B70BDFC30036B70B504006E
:1017E000002B07D1CC20400000F03CFC0500FFF7A7
:1017F00089FF2563206B70BDF8B5002504000E003D
:10180000857105830C2229001C3001F0D6FA2A4B81
:101810002000A36223003033E5621D70231DDD87A5
:1018200044300C22290001F0C8FA244BA665236538
:10183000234B27002360230026005C336565603757
:101840001D705D709D70DD70C03638000021FCF7A2
:101850003DFFBD82FD821837BE42F6D125005135CD
:10186000FF3524220021300001F0A7FA3000243691
:10187000FFF713F8B542F4D1A82300215B00E15033
:10188000B42223002000FC3352009965D965196603
:10189000596681306C61A150196759679967D9679A
:1018A000A3185C61FF30FFF71DFF20009530FF306B
:1018B000FEF7F3FF2000F8BD55FD010063FD0100B8
:1018C000504C0200FC3070B5466B0500002E1CD158
:1018D000B420800000F0C6FB04000D4B866043601E
:1018E0000C4B466103610C4B0662C3610B4BC66235
:1018F00083620B4B210003603430FFF77DFF200033
:10190000ED30FF30FDF720FC6C63686B70BDC046A6
:10191000E44B0200D44B0200304C0200404C020069
:10192000744A020003000A0070B570CA70C3CB6825
:10193000C3600023036170BD10B58130FF30FFF735
:10194000F1FF10BD30B587B00400FEF777FA051E31
:1019500024D123005C33187058709870D870A82375
:101960005B00E050E218523BFF3B53609360D36052
:101970001361B4225200A05022006932FF320100EC
:1019800053609360D360136101A8FFF7ABFE2000A2
:10199000813001A9FF30FFF7C5FF00E006252800D0
:1019A00007B030BD10B5054C2000FFF7FDFD044A1F
:1019B0000449200000F00EFB10BDC0468C2B002017
:1019C000002800201115020001704B1C0AD00123D1
:1019D0008B404360044BC360044B0361044B436181
:1019E000044B83607047C046080500500C0500504A
:1019F000100500501405005008B5007840B200F002
:101A0000ABF908BD38B50023C356051C0C1C0133C7
:101A100004D1094809492A2201F004F8002C01D018
:101A2000012C07D10023A022EB56D205C133FF338E
:101A30009B009C5038BDC046C0470200404D02008C
:101A400037B5A223A022DB00D205D358BE220193D2
:101A5000314B5200995800295DD0C1218900595855
:101A6000002958DA00249C502C4BA500E858002887
:101A70004ED02B4BE35C002B30D0019B0121E34087
:101A80000B4212D0231CA022C133FF339B00D2058E
:101A90009B589B039B0F032B07D0224B1B68E340F3
:101AA0000B4202D0204B1B6817E0019B0122E34050
:101AB000134213D1231CA021C133FF339B00C9055E
:101AC0005B589B039B0F032B08D1184B1B68E3400B
